:100000000C942A000C9447000C9447000C94470071
:100010000C9447000C9447000C9447000C94470044
:100020000C9447000C9447000C9447000C94470034
:100030000C9447000C94C8080C9447000C9447009B
:100040000C9447000C9447000C9447000C94470014
:100050000C94470011241FBECFE5D8E0DEBFCDBF12
:1000600011E0A0E6B0E0E6E1F8E102C005900D92F3
:10007000AA3BB107D9F711E0AAEBB1E001C01D928C
:10008000A63DB107E1F70E940B060C94090C0C94F5
:100090000000EF92FF920F931F937B018C0120E0F1
:1000A00030E040E05FE40E94190388238CF0C8012F
:1000B000B70120E030E040E05FE40E94C1010E940F
:1000C00049039B01AC01205030404040504806C0DD
:1000D000C801B7010E9449039B01AC01B901CA01E3
:1000E0001F910F91FF90EF900895A0E0B0E0EBE733
:1000F000F0E00C94D20BDC012B01FA019C919230C0
:1001000008F439C1EB018881823008F433C194309E
:1001100069F4843009F02FC111969C91119789815F
:10012000981709F428C1A2E7B0E025C1843009F48A
:1001300021C18230A9F4923009F01DC19A01AD01AC
:1001400088E0EA010990AE01E90109929E0181501F
:10015000C1F7E201898111969C918923818308C1AD
:10016000923009F407C112962D903C901397EB0141
:100170008A819B811496AD90BD90CD90DC901797AD
:10018000EC80FD800E811F819101281B390BB90184
:1001900037FF04C066277727621B730B6032710537
:1001A0000CF061C0121613066CF537014801062EDB
:1001B00004C096948794779467940A94D2F721E0C8
:1001C00030E040E050E004C0220F331F441F551FB1
:1001D0006A95D2F721503040404050402E213F21B7
:1001E00040235123211531054105510521F021E01E
:1001F00030E040E050E079018A01E628F72808293C
:1002000019293CC0232BD1F1260E371E350146019A
:10021000062E04C096948794779467940A94D2F734
:1002200021E030E040E050E004C0220F331F441FC3
:10023000551F6A95D2F721503040404050402A2146
:100240003B214C215D21211531054105510521F04E
:1002500021E030E040E050E059016A01A628B728CB
:10026000C828D9280BC0821593052CF01C01AA249C
:10027000BB24650103C0EE24FF24870111969C91E5
:10028000D20111968C91981709F445C0992339F041
:10029000A80197012A193B094C095D0906C0A6016E
:1002A00095012E193F09400B510B57FD08C01182D3
:1002B0003382228224833583468357831DC081E0A5
:1002C00081833382228288279927DC01821B930B4A
:1002D000A40BB50B84839583A683B7830DC0220F2F
:1002E000331F441F551F24833583468357838281E0
:1002F000938101979383828324813581468157813D
:10030000DA01C9010197A109B1098F5F9F4FAF4F72
:10031000BF4328F30BC0918333822282EA0CFB1C7B
:100320000C1D1D1DE482F5820683178383E0808304
:10033000248135814681578157FF1AC0C901AA27F8
:1003400097FDA095BA2F81709070A070B0705695EF
:10035000479537952795822B932BA42BB52B848318
:100360009583A683B7838281938101969383828349
:10037000DF0101C0D201CD01CDB7DEB7E2E10C94BF
:10038000EE0BA0E2B0E0E7ECF1E00C94DE0B698349
:100390007A838B839C832D833E834F835887E9E048
:1003A000EE2EF12CEC0EFD1ECE010196B7010E943F
:1003B0003A058E010F5E1F4FCE010596B8010E94CF
:1003C0003A058A8991E089278A8BC701B801AE0175
:1003D000475E5F4F0E9475000E946504A096E6E0AC
:1003E0000C94FA0BA0E2B0E0E8EFF1E00C94DE0B25
:1003F00069837A838B839C832D833E834F835887C5
:10040000F9E0EF2EF12CEC0EFD1ECE010196B701A6
:100410000E943A058E010F5E1F4FCE010596B8016E
:100420000E943A05C701B801AE01475E5F4F0E94C6
:1004300075000E946504A096E6E00C94FA0BA0E219
:10044000B0E0E5E2F2E00C94D20B69837A838B830F
:100450009C832D833E834F835887CE010196BE0136
:10046000675F7F4F0E943A05CE010596BE016F5E21
:100470007F4F0E943A059985923088F089898230B1
:10048000C8F0943019F4823051F404C0843029F457
:10049000923081F482E790E0C6C0923049F420E0C7
:1004A0009A858A89981321E02A87CE010996BBC0D4
:1004B000823049F420E09A858A89981321E02A8BBA
:1004C000CE014196B0C02D843E844F8458886D88FB
:1004D0007E888F88988CEE24FF248701AA24BB2471
:1004E000650140E050E060E070E0E0E0F0E0C10174
:1004F00081709070892BE9F0E60CF71C081D191D1E
:100500009A01AB012A0D3B1D4C1D5D1D80E090E062
:10051000A0E0B0E0E614F7040805190520F481E036
:1005200090E0A0E0B0E0BA01A901480F591F6A1F8E
:100530007B1FAA0CBB1CCC1CDD1C97FE08C081E0F5
:1005400090E0A0E0B0E0A82AB92ACA2ADB2A3196B6
:10055000E032F10549F0660C771C881C991C569412
:10056000479437942794C3CFFA85EA892B893C892D
:100570008B859C85280F391F2E5F3F4F17C0CA01FE
:1005800081709070892B61F016950795F794E79428
:1005900080E090E0A0E0B0E8E82AF92A0A2B1B2BC3
:1005A00076956795579547952F5F3F4F77FDE7CF36
:1005B0000CC0440F551F661F771F17FD4160EE0CDE
:1005C000FF1C001F111F21503040403090E05907A0
:1005D00090E0690790E4790760F32B8F3C8FDB0193
:1005E000CA018F779070A070B07080349105A1051A
:1005F000B10561F447FD0AC0E114F10401051105DC
:1006000029F0405C5F4F6F4F7F4F40781A8EFE1786
:1006100011F081E08A8F4D8F5E8F6F8F78A383E01A
:10062000898FCE0149960E946504A096E2E10C9460
:10063000EE0BA8E1B0E0EFE1F3E00C94DE0B698390
:100640007A838B839C832D833E834F83588789E0F5
:10065000E82EF12CEC0EFD1ECE010196B7010E9492
:100660003A058E010F5E1F4FCE010596B8010E941C
:100670003A058985823040F08989823028F0C701A7
:10068000B8010E94B20501C08FEF6896E6E00C94B5
:10069000FA0BACE0B0E0EFE4F3E00C94E20B69831A
:1006A0007A838B839C83CE010196BE016B5F7F4F63
:1006B0000E943A058D81823061F1823050F18430A0
:1006C00021F48E81882351F12EC02F81388537FD8A
:1006D00020C06E812F3131051CF06623F9F023C054
:1006E0008EE190E0821B930B29853A854B855C85D2
:1006F00004C056954795379527958A95D2F7662376
:10070000B1F050954095309521953F4F4F4F5F4F39
:100710000EC020E030E040E050E009C02FEF3FEF96
:100720004FEF5FE704C020E030E040E050E8B9015F
:10073000CA012C96E2E00C94FE0BA8E0B0E0E3EADC
:10074000F3E00C94DA0B7B018C01611571058105D6
:10075000910519F482E0898360C083E089838EE18A
:10076000C82ED12CDC82CB82ED82FE820F831887CB
:10077000C801B7010E941604FC013197F7FF3BC086
:10078000222733272E1B3F0B57016801022E04C07E
:10079000D694C794B794A7940A94D2F740E050E057
:1007A00060E070E081E090E0A0E0B0E004C0880F7D
:1007B000991FAA1FBB1F2A95D2F70197A109B1095A
:1007C0008E219F21A023B1230097A105B10521F01F
:1007D00041E050E060E070E04A295B296C297D2906
:1007E0004D835E836F8378878EE190E08E1B9F0B35
:1007F0009C838B8312C0309781F00E2E04C0EE0CC8
:10080000FF1C001F111F0A94D2F7ED82FE820F8396
:100810001887CE1ADF0ADC82CB821A82CE010196BB
:100820000E9465042896EAE00C94F60BEF92FF9282
:100830000F931F937B018C0180E0E81680E0F8069F
:1008400081E0080780E0180788F48FEFE816F104CC
:100850000105110531F028F088E090E0A0E0B0E05B
:1008600017C080E090E0A0E0B0E012C080E0E816A1
:1008700080E0F80680E0080781E0180728F088E1AA
:1008800090E0A0E0B0E004C080E190E0A0E0B0E043
:1008900020E230E040E050E0281B390B4A0B5B0BB4
:1008A00004C016950795F794E7948A95D2F7F70157
:1008B000E658FF4F8081281B310941095109C901C0
:1008C0001F910F91FF90EF900895DF92EF92FF92AA
:1008D0000F931F93FC01E480F58006811781D1807E
:1008E0008081823048F480E090E0A0E1B0E0E82A26
:1008F000F92A0A2B1B2BA5C0843009F49FC0823033
:1009000021F4EE24FF24870105C0E114F104010560
:10091000110519F4E0E0F0E096C0628173819FEF69
:10092000623879070CF05BC022E83FEF261B370BDB
:100930002A3131052CF020E030E040E050E02AC0C0
:10094000B801A701022E04C0769567955795479583
:100950000A94D2F781E090E0A0E0B0E004C0880FF4
:10096000991FAA1FBB1F2A95D2F70197A109B109A8
:100970008E219F21A023B1230097A105B10521F06D
:1009800081E090E0A0E0B0E09A01AB01282B392B88
:100990004A2B5B2BDA01C9018F779070A070B07081
:1009A00080349105A105B10539F427FF09C0205C09
:1009B0003F4F4F4F5F4F04C0215C3F4F4F4F5F4F42
:1009C000E0E0F0E02030A0E03A07A0E04A07A0E431
:1009D0005A0710F0E1E0F0E079018A0127C06038A1
:1009E000710564F5FB01E158FF4FD801C7018F770E
:1009F0009070A070B07080349105A105B10539F4F4
:100A0000E7FE0DC080E490E0A0E0B0E004C08FE31A
:100A100090E0A0E0B0E0E80EF91E0A1F1B1F17FFD0
:100A200005C016950795F794E794319687E01695DB
:100A30000795F794E7948A95D1F705C0EE24FF2433
:100A40008701EFEFF0E06E2F679566276795902F8F
:100A50009F77D794DD24D7948E2F8695492F462BE8
:100A6000582F5D29B701CA011F910F91FF90EF9098
:100A7000DF900895FC01DB01408151812281622FCA
:100A80006F7770E0221F2227221F9381892F880F02
:100A9000822B282F30E0991F9927991F11969C933C
:100AA000119721153105A9F541155105610571050C
:100AB00011F482E037C082E89FEF13969C938E93E7
:100AC00012979A01AB0167E0220F331F441F551F95
:100AD0006A95D1F783E08C930DC0220F331F441F1A
:100AE000551F12968D919C911397019713969C9385
:100AF0008E931297203080E0380780E0480780E42A
:100B0000580758F314962D933D934D935C93179784
:100B100008952F3F310579F441155105610571059F
:100B200019F484E08C93089564FF03C081E08C93F2
:100B300012C01C9210C02F57304013963C932E9336
:100B4000129783E08C9387E0440F551F661F771F31
:100B50008A95D1F7706414964D935D936D937C9351
:100B6000179708951F93DC01FB019C91923008F4C4
:100B700047C08081823008F443C0943051F411960C
:100B80001C91843099F58181682F70E0611B710997
:100B90003FC0843021F0923031F48230B9F181814C
:100BA000882389F12DC011961C9111978230F1F0A4
:100BB00081811817D9F412962D913C911397828157
:100BC00093818217930794F028173907BCF0149685
:100BD0008D919D910D90BC91A02D248135814681F0
:100BE0005781281739074A075B0718F4112341F08A
:100BF0000AC082179307A407B50740F4112319F020
:100C000061E070E005C06FEF7FEF02C060E070E070
:100C1000CB011F910895CF93DF930E9491090E9409
:100C2000AE078CE00E9486070E94D10687E690E01E
:100C30000E94970880E690E00E94B208CDEBD1E0D8
:100C40008091BC018130E1F71092BC010E948607BF
:100C500080E060E00E949F07CE010E947707F0CFFE
:100C6000FF920F931F93F82E81E062E041E00E9413
:100C7000740A81E061E040E00E94740A8F2D6AE00E
:100C80000E94B20B482F4295407F80E060EF0E94A7
:100C9000F30A00EA1FE0C8010197F1F781E062E082
:100CA00040E00E94740A81E061E041E00E94740A21
:100CB0008F2D6AE00E94B20B9295907F80E060EFEA
:100CC000492F0E94F30AC8010197F1F71F910F9174
:100CD000FF90089580E064E041E00E94F50980E023
:100CE00065E041E00E94F50980E066E041E00E9495
:100CF000F50980E067E041E00E94F50981E061E0EC
:100D000041E00E94F50981E062E041E00E94F509BE
:100D10000895813051F0813018F0823079F40AC0A2
:100D200082E062E00E94220B089582E067E00E9468
:100D3000220B089583E063E00E94220B0895813026
:100D400059F0813018F0823091F40CC082E062E0FA
:100D500040E00E94740A089582E067E040E00E944B
:100D6000740A089583E063E040E00E94740A0895E5
:100D7000813059F0813018F0823091F40CC082E05B
:100D800062E041E00E94740A089582E067E041E079
:100D90000E94740A089583E063E041E00E94740AAF
:100DA000089582E062E041E00E94F50982E067E098
:100DB00041E00E94F50983E063E041E00E94F5090B
:100DC000089581E063E041E00E94740A85E08A951D
:100DD000F1F781E063E040E00E94740A80E49FE163
:100DE0000197F1F708951F93182F81E061E041E02A
:100DF0000E94740A80E060EF412F0E94F30A0E9473
:100E0000E1061295107F80E060EF412F0E94F30A07
:100E10000E94E1061F9108950F931F938C0168EEC5
:100E200073E00E94BE0B862F805D0E94F306C8010E
:100E300068EE73E00E94BE0B182F092F64E670E085
:100E40000E94BE0B862F805D0E94F306812F902F9B
:100E500064E670E00E94BE0B182F092F6AE070E074
:100E60000E94BE0B862F805D0E94F306812F902F7B
:100E70006AE070E00E94BE0B805D0E94F3061F9145
:100E80000F910895AF92BF92CF92DF92EF92FF92AF
:100E90000F931F935B016C010E944900DC01CB01A1
:100EA0007C010E940C078EE20E94F30600E010E035
:100EB000C801B7010E949D039B01AC01C601B501A9
:100EC0000E94C10120E030E048EC52E40E941F0281
:100ED0000E944900DC01CB010E940C071F910F9179
:100EE000FF90EF90DF90CF90BF90AF900895CF9399
:100EF000DF93EC018881882331F00E94F30621966C
:100F000088818823D1F7DF91CF9108951F93182FFF
:100F100081E061E040E00E94740A80E060EF412FD0
:100F20000E94F30A0E94E1061295107F80E060EFB4
:100F3000412F0E94F30A0E94E1061F910895882321
:100F400019F0813051F405C0862F80580E94860721
:100F50000895862F80540E9486070895AF92BF920D
:100F6000CF92DF92EF92FF920F931F93CF93DF9375
:100F700080E064E041E00E94F50980E065E041E046
:100F80000E94F50980E066E041E00E94F50980E0FA
:100F900067E041E00E94F50981E061E041E00E94E4
:100FA000F50981E062E041E00E94F50981E063E03B
:100FB00041E00E94F50981E062E040E00E94740A8D
:100FC00080E69AEE0197F1F783E00E94860780E2BF
:100FD0009EE40197F1F783E00E94860780E991E0A3
:100FE0000197F1F783E00E94860782E00E9486075E
:100FF00088E20E948607EE24FF24CC24DD24689436
:10100000C6F80F2EFAE7AF2EF1E0BF2EF02D00E06C
:101010008C2D0E9486079701220F331F220F331F4A
:10102000220F331FE501C20FD31F102F89910E9499
:10103000F3061F5F1830D1F70894E11CF11C88E01B
:1010400090E0C80ED91E98E0E916F10409F780E097
:1010500060E00E949F078CE00E948607DF91CF919D
:101060001F910F91FF90EF90DF90CF90BF90AF90C6
:10107000089580E063E00E94220B089580E063E021
:1010800040E00E94740A089580E063E041E00E941D
:10109000740A089580E063E041E00E94F509089534
:1010A000813079F0813020F08230A1F090E01AC0D8
:1010B00081E060E00E945F0B90E0813099F491E064
:1010C00011C081E064E00E945F0B90E0813051F438
:1010D00091E008C083E062E00E945F0B90E0813005
:1010E00009F491E0892F089581E060E040E00E94DA
:1010F000F50981E064E040E00E94F50983E062E0E8
:1011000040E00E94F5090895E1E4F0E08081876005
:1011100080838081886080830895E1E4F0E088E145
:1011200080838081877F80830895A8950895A0E4B7
:10113000B0E09C9389B9EAE2F0E08081806180832D
:101140008081886080838C91866A8C93808180689E
:1011500080830895982FEBE2F0E0808185FFFDCF3A
:101160009CB90895CF93DF93EC018881882331F0F7
:101170000E94AA08219688818823D1F7DF91CF9118
:1011800008958BB1882314F080E008958CB1089500
:101190001F920F920FB60F9211242F933F934F93EC
:1011A0005F936F937F938F939F93AF93BF93EF93CF
:1011B000FF938091BB019CB1EDEBF1E0DF01A80F43
:1011C000B11D9C938091BB01E80FF11D80818D3092
:1011D00041F41092BB0181E08093BC010E9489061A
:1011E00008C08091BB018F5F8093BB0180E00E94AB
:1011F0008906FF91EF91BF91AF919F918F917F9160
:101200006F915F914F913F912F910F900FBE0F9073
:101210001F901895E3E5F0E0808180830895E3E571
:10122000F0E09081892B80830895E3E5F0E08081F0
:101230008C7F8083089582BF089582B70895E9E581
:10124000F0E08081816080830895E9E5F0E08081AD
:101250008E7F808308958CBF08958FB9EEE2F0E011
:1012600080818823ECF78FB108958FEF8FB9EEE27C
:10127000F0E080818823ECF78FB108958FB9EEE21A
:10128000F0E080818823ECF78FB10895EEE2F0E082
:1012900080818823ECF78FB108958FB9089581E09C
:1012A00065E040E00E94F50981E064E040E00E94D2
:1012B000F50981E067E040E00E94F50981E066E021
:1012C00041E00E94F509EDE2F0E0808180648083D6
:1012D00080818F7E8083089581E065E041E00E94F7
:1012E000F50981E064E041E00E94F50981E067E0F2
:1012F00041E00E94F50981E066E040E00E94F509C6
:1013000081E064E041E00E94740AEDE2F0E0808157
:10131000806480838081806180838081816080831C
:101320000895EFE5F0E08081806880830895EFE51F
:10133000F0E080818F7780830895813059F081308B
:1013400018F0823091F40CC0EBE5F0E0808180640D
:1013500080830895EBE5F0E08081806880830895C4
:10136000EBE5F0E08081806280830895813059F060
:10137000813018F0823091F40CC0EBE5F0E0808110
:101380008F7B80830895EBE5F0E080818F77808309
:101390000895EBE5F0E080818F7D808308958130B2
:1013A00059F0813018F08230F9F40FC0E5E5F0E033
:1013B0008081862B80830895E5E5F0E09081862F7B
:1013C000880F880F892B80830895623031F4E4E51B
:1013D000F0E080818F7B80830895633029F4E4E519
:1013E000F0E08081806480830895813031F1813024
:1013F00038F0823009F43EC0833009F074C057C021
:10140000442371F4EAE3F0E0208181E090E002C03F
:10141000880F991F6A95E2F780958223808308954B
:10142000EAE3F0E0208181E090E002C0880F991F9C
:101430006A95E2F7282B20830895442371F4E7E3AB
:10144000F0E0208181E090E002C0880F991F6A954A
:10145000E2F78095822380830895E7E3F0E020811E
:1014600081E090E002C0880F991F6A95E2F7282B6F
:1014700020830895442371F4E4E3F0E0208181E0C7
:1014800090E002C0880F991F6A95E2F78095822349
:1014900080830895E4E3F0E0208181E090E002C0E1
:1014A000880F991F6A95E2F7282B2083089544231B
:1014B00071F4E1E3F0E0208181E090E002C0880F68
:1014C000991F6A95E2F78095822380830895E1E36E
:1014D000F0E0208181E090E002C0880F991F6A95BA
:1014E000E2F7282B20830895813031F1813038F0E4
:1014F000823009F43EC0833009F074C057C04130D7
:1015000069F4EBE3F0E0208181E090E002C0880F15
:10151000991F6A95E2F7282B20830895EBE3F0E00A
:10152000208181E090E002C0880F991F6A95E2F760
:101530008095822380830895413069F4E8E3F0E0E8
:10154000208181E090E002C0880F991F6A95E2F740
:10155000282B20830895E8E3F0E0208181E090E0EB
:1015600002C0880F991F6A95E2F7809582238083D5
:101570000895413069F4E5E3F0E0208181E090E0F6
:1015800002C0880F991F6A95E2F7282B20830895DF
:10159000E5E3F0E0208181E090E002C0880F991F30
:1015A0006A95E2F78095822380830895413069F43B
:1015B000E2E3F0E0208181E090E002C0880F991F13
:1015C0006A95E2F7282B20830895E2E3F0E020817A
:1015D00081E090E002C0880F991F6A95E2F780953C
:1015E000822380830895813091F0813028F0823009
:1015F000B9F0833031F51DC0EBE3F0E02081942F8A
:101600009623862F80958223982B908308952BB361
:10161000942F9623862F80958223982B98BB08952C
:101620002BB3942F9623862F80958223982B95BBDE
:1016300008952BB3942F9623862F80958223982B81
:1016400092BB08958130A1F0813028F08230E9F01A
:101650008330A1F527C0EBE3F0E0208181E090E04A
:1016600002C0880F991F6A95E2F728272083089502
:10167000E8E3F0E0208181E090E002C0880F991F4C
:101680006A95E2F7282720830895E5E3F0E02081BA
:1016900081E090E002C0880F991F6A95E2F7282741
:1016A00020830895E2E3F0E0208181E090E002C031
:1016B000880F991F6A95E2F72827208308958130C3
:1016C00089F0813030F08230B1F08330E9F080E091
:1016D000089589B390E002C0959587956A95E2F7E1
:1016E0008170089586B390E002C0959587956A95BC
:1016F000E2F78170089583B390E002C095958795D5
:101700006A95E2F78170089580B390E002C09595E4
:1017100087956A95E2F781700895E7E2F0E08081AD
:101720008064808387E886B90895E7E2F0E09081DD
:10173000987F892B8083E6E2F0E08081806480835B
:10174000808184FFFDCFE6E2F0E0808180618083CC
:1017500084B145B1342F20E090E0282B392B822F23
:10176000932F0895991B79E004C0991F961708F0EC
:10177000961B881F7A95C9F780950895AA1BBB1BF5
:1017800051E107C0AA1FBB1FA617B70710F0A61B81
:10179000B70B881F991F5A95A9F780959095BC01A2
:1017A000CD0108952F923F924F925F926F927F9258
:1017B0008F929F92AF92BF92CF92DF92EF92FF9261
:1017C0000F931F93CF93DF93CDB7DEB7CA1BDB0B0D
:1017D0000FB6F894DEBF0FBECDBF09942A883988B2
:1017E00048885F846E847D848C849B84AA84B984B9
:1017F000C884DF80EE80FD800C811B81AA81B981C5
:10180000CE0FD11D0FB6F894DEBF0FBECDBFED01D8
:061810000895F894FFCFDB
:1018160048656C6C6F20554152542E2E2E2E2E2E5E
:101826002E00000000000000000000010202030379
:10183600030304040404040404040505050505055E
:10184600050505050505050505050606060606063C
:101856000606060606060606060606060606060622
:10186600060606060606060606060707070707070C
:1018760007070707070707070707070707070707F2
:1018860007070707070707070707070707070707E2
:1018960007070707070707070707070707070707D2
:1018A60007070707070707070707080808080808BC
:1018B60008080808080808080808080808080808A2
:1018C6000808080808080808080808080808080892
:1018D6000808080808080808080808080808080882
:1018E6000808080808080808080808080808080872
:1018F6000808080808080808080808080808080862
:101906000808080808080808080808080808080851
:101916000808080808080808080808080808080841
:10192600080808080808080808080A1F1F1F1F0ECD
:101936000400041F11111111111F041F111111119F
:101946001F1F041F1111111F1F1F041F11111F1F1D
:101956001F1F041F111F1F1F1F1F041F1F1F1F1FD5
:0A1966001F1F000001010505151503
:00000001FF
