:100000000C942A000C9447000C9447000C94470071
:100010000C9447000C9447000C9447000C94470044
:100020000C9447000C9447000C9447000C94470034
:100030000C9447000C94F1080C9447000C94470072
:100040000C9447000C9447000C9447000C94470014
:100050000C94470011241FBECFE5D8E0DEBFCDBF12
:1000600011E0A0E6B0E0EEE5F8E102C005900D92E7
:10007000A43BB107D9F711E0A4EBB1E001C01D9298
:10008000A03DB107E1F70E940B060C942D0C0C94D7
:100090000000EF92FF920F931F937B018C0120E0F1
:1000A00030E040E05FE40E94190388238CF0C8012F
:1000B000B70120E030E040E05FE40E94C1010E940F
:1000C00049039B01AC01205030404040504806C0DD
:1000D000C801B7010E9449039B01AC01B901CA01E3
:1000E0001F910F91FF90EF900895A0E0B0E0EBE733
:1000F000F0E00C94F60BDC012B01FA019C9192309C
:1001000008F439C1EB018881823008F433C194309E
:1001100069F4843009F02FC111969C91119789815F
:10012000981709F428C1ABE6B0E025C1843009F482
:1001300021C18230A9F4923009F01DC19A01AD01AC
:1001400088E0EA010990AE01E90109929E0181501F
:10015000C1F7E201898111969C918923818308C1AD
:10016000923009F407C112962D903C901397EB0141
:100170008A819B811496AD90BD90CD90DC901797AD
:10018000EC80FD800E811F819101281B390BB90184
:1001900037FF04C066277727621B730B6032710537
:1001A0000CF061C0121613066CF537014801062EDB
:1001B00004C096948794779467940A94D2F721E0C8
:1001C00030E040E050E004C0220F331F441F551FB1
:1001D0006A95D2F721503040404050402E213F21B7
:1001E00040235123211531054105510521F021E01E
:1001F00030E040E050E079018A01E628F72808293C
:1002000019293CC0232BD1F1260E371E350146019A
:10021000062E04C096948794779467940A94D2F734
:1002200021E030E040E050E004C0220F331F441FC3
:10023000551F6A95D2F721503040404050402A2146
:100240003B214C215D21211531054105510521F04E
:1002500021E030E040E050E059016A01A628B728CB
:10026000C828D9280BC0821593052CF01C01AA249C
:10027000BB24650103C0EE24FF24870111969C91E5
:10028000D20111968C91981709F445C0992339F041
:10029000A80197012A193B094C095D0906C0A6016E
:1002A00095012E193F09400B510B57FD08C01182D3
:1002B0003382228224833583468357831DC081E0A5
:1002C00081833382228288279927DC01821B930B4A
:1002D000A40BB50B84839583A683B7830DC0220F2F
:1002E000331F441F551F24833583468357838281E0
:1002F000938101979383828324813581468157813D
:10030000DA01C9010197A109B1098F5F9F4FAF4F72
:10031000BF4328F30BC0918333822282EA0CFB1C7B
:100320000C1D1D1DE482F5820683178383E0808304
:10033000248135814681578157FF1AC0C901AA27F8
:1003400097FDA095BA2F81709070A070B0705695EF
:10035000479537952795822B932BA42BB52B848318
:100360009583A683B7838281938101969383828349
:10037000DF0101C0D201CD01CDB7DEB7E2E10C94BF
:10038000120CA0E2B0E0E7ECF1E00C94020C6983FF
:100390007A838B839C832D833E834F835887E9E048
:1003A000EE2EF12CEC0EFD1ECE010196B7010E943F
:1003B0003A058E010F5E1F4FCE010596B8010E94CF
:1003C0003A058A8991E089278A8BC701B801AE0175
:1003D000475E5F4F0E9475000E946504A096E6E0AC
:1003E0000C941E0CA0E2B0E0E8EFF1E00C94020CDB
:1003F00069837A838B839C832D833E834F835887C5
:10040000F9E0EF2EF12CEC0EFD1ECE010196B701A6
:100410000E943A058E010F5E1F4FCE010596B8016E
:100420000E943A05C701B801AE01475E5F4F0E94C6
:1004300075000E946504A096E6E00C941E0CA0E2F4
:10044000B0E0E5E2F2E00C94F60B69837A838B83EB
:100450009C832D833E834F835887CE010196BE0136
:10046000675F7F4F0E943A05CE010596BE016F5E21
:100470007F4F0E943A059985923088F089898230B1
:10048000C8F0943019F4823051F404C0843029F457
:10049000923081F48BE690E0C6C0923049F420E0BF
:1004A0009A858A89981321E02A87CE010996BBC0D4
:1004B000823049F420E09A858A89981321E02A8BBA
:1004C000CE014196B0C02D843E844F8458886D88FB
:1004D0007E888F88988CEE24FF248701AA24BB2471
:1004E000650140E050E060E070E0E0E0F0E0C10174
:1004F00081709070892BE9F0E60CF71C081D191D1E
:100500009A01AB012A0D3B1D4C1D5D1D80E090E062
:10051000A0E0B0E0E614F7040805190520F481E036
:1005200090E0A0E0B0E0BA01A901480F591F6A1F8E
:100530007B1FAA0CBB1CCC1CDD1C97FE08C081E0F5
:1005400090E0A0E0B0E0A82AB92ACA2ADB2A3196B6
:10055000E032F10549F0660C771C881C991C569412
:10056000479437942794C3CFFA85EA892B893C892D
:100570008B859C85280F391F2E5F3F4F17C0CA01FE
:1005800081709070892B61F016950795F794E79428
:1005900080E090E0A0E0B0E8E82AF92A0A2B1B2BC3
:1005A00076956795579547952F5F3F4F77FDE7CF36
:1005B0000CC0440F551F661F771F17FD4160EE0CDE
:1005C000FF1C001F111F21503040403090E05907A0
:1005D00090E0690790E4790760F32B8F3C8FDB0193
:1005E000CA018F779070A070B07080349105A1051A
:1005F000B10561F447FD0AC0E114F10401051105DC
:1006000029F0405C5F4F6F4F7F4F40781A8EFE1786
:1006100011F081E08A8F4D8F5E8F6F8F78A383E01A
:10062000898FCE0149960E946504A096E2E10C9460
:10063000120CA8E1B0E0EFE1F3E00C94020C698346
:100640007A838B839C832D833E834F83588789E0F5
:10065000E82EF12CEC0EFD1ECE010196B7010E9492
:100660003A058E010F5E1F4FCE010596B8010E941C
:100670003A058985823040F08989823028F0C701A7
:10068000B8010E94B20501C08FEF6896E6E00C94B5
:100690001E0CACE0B0E0EFE4F3E00C94060C6983D0
:1006A0007A838B839C83CE010196BE016B5F7F4F63
:1006B0000E943A058D81823061F1823050F18430A0
:1006C00021F48E81882351F12EC02F81388537FD8A
:1006D00020C06E812F3131051CF06623F9F023C054
:1006E0008EE190E0821B930B29853A854B855C85D2
:1006F00004C056954795379527958A95D2F7662376
:10070000B1F050954095309521953F4F4F4F5F4F39
:100710000EC020E030E040E050E009C02FEF3FEF96
:100720004FEF5FE704C020E030E040E050E8B9015F
:10073000CA012C96E2E00C94220CA8E0B0E0E3EAB7
:10074000F3E00C94FE0B7B018C01611571058105B2
:10075000910519F482E0898360C083E089838EE18A
:10076000C82ED12CDC82CB82ED82FE820F831887CB
:10077000C801B7010E941604FC013197F7FF3BC086
:10078000222733272E1B3F0B57016801022E04C07E
:10079000D694C794B794A7940A94D2F740E050E057
:1007A00060E070E081E090E0A0E0B0E004C0880F7D
:1007B000991FAA1FBB1F2A95D2F70197A109B1095A
:1007C0008E219F21A023B1230097A105B10521F01F
:1007D00041E050E060E070E04A295B296C297D2906
:1007E0004D835E836F8378878EE190E08E1B9F0B35
:1007F0009C838B8312C0309781F00E2E04C0EE0CC8
:10080000FF1C001F111F0A94D2F7ED82FE820F8396
:100810001887CE1ADF0ADC82CB821A82CE010196BB
:100820000E9465042896EAE00C941A0CEF92FF925D
:100830000F931F937B018C0180E0E81680E0F8069F
:1008400081E0080780E0180788F48FEFE816F104CC
:100850000105110531F028F088E090E0A0E0B0E05B
:1008600017C080E090E0A0E0B0E012C080E0E816A1
:1008700080E0F80680E0080781E0180728F088E1AA
:1008800090E0A0E0B0E004C080E190E0A0E0B0E043
:1008900020E230E040E050E0281B390B4A0B5B0BB4
:1008A00004C016950795F794E7948A95D2F7F70157
:1008B000ED58FF4F8081281B310941095109C901B9
:1008C0001F910F91FF90EF900895DF92EF92FF92AA
:1008D0000F931F93FC01E480F58006811781D1807E
:1008E0008081823048F480E090E0A0E1B0E0E82A26
:1008F000F92A0A2B1B2BA5C0843009F49FC0823033
:1009000021F4EE24FF24870105C0E114F104010560
:10091000110519F4E0E0F0E096C0628173819FEF69
:10092000623879070CF05BC022E83FEF261B370BDB
:100930002A3131052CF020E030E040E050E02AC0C0
:10094000B801A701022E04C0769567955795479583
:100950000A94D2F781E090E0A0E0B0E004C0880FF4
:10096000991FAA1FBB1F2A95D2F70197A109B109A8
:100970008E219F21A023B1230097A105B10521F06D
:1009800081E090E0A0E0B0E09A01AB01282B392B88
:100990004A2B5B2BDA01C9018F779070A070B07081
:1009A00080349105A105B10539F427FF09C0205C09
:1009B0003F4F4F4F5F4F04C0215C3F4F4F4F5F4F42
:1009C000E0E0F0E02030A0E03A07A0E04A07A0E431
:1009D0005A0710F0E1E0F0E079018A0127C06038A1
:1009E000710564F5FB01E158FF4FD801C7018F770E
:1009F0009070A070B07080349105A105B10539F4F4
:100A0000E7FE0DC080E490E0A0E0B0E004C08FE31A
:100A100090E0A0E0B0E0E80EF91E0A1F1B1F17FFD0
:100A200005C016950795F794E794319687E01695DB
:100A30000795F794E7948A95D1F705C0EE24FF2433
:100A40008701EFEFF0E06E2F679566276795902F8F
:100A50009F77D794DD24D7948E2F8695492F462BE8
:100A6000582F5D29B701CA011F910F91FF90EF9098
:100A7000DF900895FC01DB01408151812281622FCA
:100A80006F7770E0221F2227221F9381892F880F02
:100A9000822B282F30E0991F9927991F11969C933C
:100AA000119721153105A9F541155105610571050C
:100AB00011F482E037C082E89FEF13969C938E93E7
:100AC00012979A01AB0167E0220F331F441F551F95
:100AD0006A95D1F783E08C930DC0220F331F441F1A
:100AE000551F12968D919C911397019713969C9385
:100AF0008E931297203080E0380780E0480780E42A
:100B0000580758F314962D933D934D935C93179784
:100B100008952F3F310579F441155105610571059F
:100B200019F484E08C93089564FF03C081E08C93F2
:100B300012C01C9210C02F57304013963C932E9336
:100B4000129783E08C9387E0440F551F661F771F31
:100B50008A95D1F7706414964D935D936D937C9351
:100B6000179708951F93DC01FB019C91923008F4C4
:100B700047C08081823008F443C0943051F411960C
:100B80001C91843099F58181682F70E0611B710997
:100B90003FC0843021F0923031F48230B9F181814C
:100BA000882389F12DC011961C9111978230F1F0A4
:100BB00081811817D9F412962D913C911397828157
:100BC00093818217930794F028173907BCF0149685
:100BD0008D919D910D90BC91A02D248135814681F0
:100BE0005781281739074A075B0718F4112341F08A
:100BF0000AC082179307A407B50740F4112319F020
:100C000061E070E005C06FEF7FEF02C060E070E070
:100C1000CB011F9108951F93CF93DF930E94C307C9
:100C20000E94740880E090E06FEF0E945B0880E013
:100C300090E00E94550A8F3F11F510E080E060E0DF
:100C40000E94B40780E690E00E948C07C0E9D1E0E2
:100C500080E06AE00E94B407812F90E00E942107A3
:100C60001F5F80E090E0612F0E944D0A20E137E293
:100C7000CE010197F1F721503040D1F7E9CF80E064
:100C800090E00E94550A182FD9CFFF920F931F931F
:100C9000F82E81E062E041E00E94CA0A81E061E052
:100CA00040E00E94CA0A8F2D6AE00E94D60B482FAE
:100CB0004295407F80E060EF0E94390B00EA1FE020
:100CC000C8010197F1F781E062E040E00E94CA0AA2
:100CD00081E061E041E00E94CA0A8F2D6AE00E9433
:100CE000D60B9295907F80E060EF492F0E94390BE0
:100CF000C8010197F1F71F910F91FF90089580E0CF
:100D000064E041E00E945C0A80E065E041E00E940E
:100D10005C0A80E066E041E00E945C0A80E067E0F7
:100D200041E00E945C0A81E061E041E00E945C0ACF
:100D300081E062E041E00E945C0A0895813079F030
:100D4000813028F482E062E00E945E0B08958230D8
:100D500009F0089583E063E00E945E0B089582E04D
:100D600067E00E945E0B0895813089F0813030F495
:100D700082E062E040E00E94CA0A0895823009F0F1
:100D8000089583E063E040E00E94CA0A089582E08B
:100D900067E040E00E94CA0A0895813089F08130FE
:100DA00030F482E062E041E00E94CA0A0895823095
:100DB00009F0089583E063E041E00E94CA0A0895C3
:100DC00082E067E041E00E94CA0A089582E062E0A2
:100DD00041E00E945C0A82E067E041E00E945C0A18
:100DE00083E063E041E00E945C0A089581E063E0F3
:100DF00041E00E94CA0A85E08A95F1F781E063E04C
:100E000040E00E94CA0A80E49FE10197F1F708954B
:100E10001F93182F81E061E041E00E94CA0A80E040
:100E200060EF412F0E94390B0E94F6061295107F49
:100E300080E060EF412F0E94390B0E94F6061F915F
:100E400008950F931F938C0168EE73E00E94E20BEC
:100E5000862F805D0E940807C80168EE73E00E943B
:100E6000E20B182F092F64E670E00E94E20B862F38
:100E7000805D0E940807812F902F64E670E00E9439
:100E8000E20B182F092F6AE070E00E94E20B862F18
:100E9000805D0E940807812F902F6AE070E00E9419
:100EA000E20B805D0E9408071F910F910895AF9299
:100EB000BF92CF92DF92EF92FF920F931F935B014D
:100EC0006C010E944900DC01CB017C010E942107DA
:100ED0008EE20E94080700E010E0C801B7010E94FE
:100EE0009D039B01AC01C601B5010E94C10120E038
:100EF00030E048EC52E40E941F020E944900DC01ED
:100F0000CB010E9421071F910F91FF90EF90DF907E
:100F1000CF90BF90AF900895CF93DF93EC0188817D
:100F2000882331F00E940807219688818823D1F711
:100F3000DF91CF9108951F93182F81E061E040E089
:100F40000E94CA0A80E060EF412F0E94390B0E9484
:100F5000F6061295107F80E060EF412F0E94390B5A
:100F60000E94F6061F910895882329F4862F805841
:100F70000E949B070895813009F00895862F8054C0
:100F80000E949B070895CF92DF92EF92FF921F93EA
:100F9000CF93DF9380E064E041E00E945C0A80E050
:100FA00065E041E00E945C0A80E066E041E00E946A
:100FB0005C0A80E067E041E00E945C0A81E061E059
:100FC00041E00E945C0A81E062E041E00E945C0A2C
:100FD00081E063E041E00E945C0A81E062E040E081
:100FE0000E94CA0A80E69AEE0197F1F783E00E9418
:100FF0009B0780E29EE40197F1F783E00E949B0744
:1010000080E991E00197F1F783E00E949B0782E07D
:101010000E949B0788E20E949B07EE24FF2490E435
:10102000C92ED12C8C2D0E949B07E701CC0FDD1F10
:10103000CC0FDD1FCC0FDD1FCD58DE4F10E08991A6
:101040000E9408071F5F1830D1F70894E11CF11CBB
:1010500088E090E0C80ED91E98E0E916F10411F777
:1010600080E060E00E94B4078CE00E949B07DF9163
:10107000CF911F91FF90EF90DF90CF9008950F9345
:101080001F93182F092F0E94A409000F006A802FB8
:101090000E94D209812F0E94CA090E94B309802FA1
:1010A0000E94E4090E94F709182F0E94C309812FAA
:1010B0001F910F910895FF920F931F93182F092FDF
:1010C000F62E0E94A409000F802F806A0E94D20988
:1010D000812F0E94CA098F2D0E94CA090E94C3094C
:1010E0001F910F91FF9008950E949509089580E047
:1010F00063E00E945E0B089580E063E040E00E94A0
:10110000CA0A089580E063E041E00E94CA0A089597
:1011100080E063E041E00E945C0A0895813089F03C
:10112000813028F08230B1F090E0892F089581E07D
:1011300060E00E94930B90E08130B9F791E0892F35
:10114000089581E064E00E94930B90E08130B1F358
:10115000892F089583E062E00E94930B90E0813034
:1011600069F3892F089581E060E040E00E945C0A05
:1011700081E064E040E00E945C0A83E062E040E0DD
:101180000E945C0A089581B5876081BD81B5886041
:1011900081BD089588E181BD81B5877F81BD0895B6
:1011A000A895089590BD89B9549A539A80B5866AD6
:1011B00080BD579A08955D9BFECF8CB90895FC01C0
:1011C0008081882339F05D9BFECF8CB93196808178
:1011D0008823C9F708955F9902C080E008958CB113
:1011E00008951F920F920FB60F9211242F933F93E1
:1011F0004F935F936F937F938F939F93AF93BF931F
:10120000EF93FF93E091B501F0E08CB1E954FE4F0C
:101210008083E091B501F0E0E954FE4F80818D308C
:10122000C9F08091B5018F5F8093B50180E00E9485
:101230009E06FF91EF91BF91AF919F918F917F910A
:101240006F915F914F913F912F910F900FBE0F9033
:101250001F9018951092B50181E08093B6010E940D
:101260009E06E7CF83B783BF089593B7982B93BFAC
:10127000089583B78C7F83BF089582BF089582B796
:10128000089589B7816089BF089589B78E7F89BF26
:1012900008958CBF08958FB9779BFECF8FB10895C5
:1012A0008FEF8FB9779BFECF8FB108958FB9779B62
:1012B000FECF8FB10895779BFECF8FB108958FB980
:1012C000089581E065E040E00E945C0A81E064E00E
:1012D00040E00E945C0A81E067E040E00E945C0A16
:1012E00081E066E041E00E945C0A6E9A6C98089585
:1012F00081E065E041E00E945C0A81E064E041E059
:101300000E945C0A81E067E041E00E945C0A81E0A3
:1013100066E040E00E945C0A81E064E041E00E94F7
:10132000CA0A6E9A6C9A689A08958CE080B986B75A
:10133000846C86BF0895109A92B1880F982B92B949
:1013400086B7846486BF089584EA86BF06B607FE22
:10135000FDCF81B190E0887F883011F0892F08950A
:1013600091E0892F089586B7846A86BF06B607FE86
:10137000FDCF81B190E0887F803111F0892F0895F1
:1013800091E0892F089586B7846986BF06B607FE67
:10139000FDCF089583B986B7846886BF06B607FE79
:1013A000FDCF0895880F83B986B7846886BF06B6D7
:1013B00007FEFDCF81B190E0887F883111F0892F41
:1013C000089591E0892F0895880F816083B986B7C9
:1013D000846886BF06B607FEFDCF81B190E0887FA6
:1013E000803411F0892F089591E0892F089586B7F0
:1013F000846886BF06B607FEFDCF83B1089581B12C
:10140000887F08958FB780688FBF08958FB78F77D3
:101410008FBF0895813069F0813020F48BB78064EC
:101420008BBF0895823009F008958BB780628BBF1F
:1014300008958BB780688BBF0895813069F0813043
:1014400020F48BB78F7B8BBF0895823009F008950D
:101450008BB78F7D8BBF08958BB78F778BBF089528
:10146000813089F0813020F485B7862B85BF0895BF
:10147000823009F00895623061F06330D9F784B7A3
:10148000806484BF089585B7660F660F862B85BF7D
:10149000089584B78F7B84BF0895E199FECF8EBBFA
:1014A0009FBB6DBBE29AE19A0895E199FECF8EBB96
:1014B0009FBBE09A8DB30895813019F1813028F0F7
:1014C000823069F1833079F008954423B1F52AB36D
:1014D00081E090E002C0880F991F6A95E2F780953D
:1014E00082238ABB0895442309F448C021B381E0D4
:1014F00090E002C0880F991F6A95E2F7282B21BB64
:101500000895442381F527B381E090E002C0880F5D
:10151000991F6A95E2F78095822387BB089544233B
:10152000B9F424B381E090E002C0880F991F6A9556
:10153000E2F78095822384BB08952AB381E090E08E
:1015400002C0880F991F6A95E2F7282B2ABB0895DD
:1015500024B381E090E002C0880F991F6A95E2F7FA
:10156000282B24BB089527B381E090E002C0880FA8
:10157000991F6A95E2F7282B27BB089521B381E0D4
:1015800090E002C0880F991F6A95E2F78095822348
:1015900081BB0895813029F1813028F0823079F1C2
:1015A000833081F00895413009F44DC02BB381E0C0
:1015B00090E002C0880F991F6A95E2F78095822318
:1015C0008BBB0895413009F449C022B381E090E01B
:1015D00002C0880F991F6A95E2F78095822382BB2B
:1015E0000895413029F128B381E090E002C0880FCE
:1015F000991F6A95E2F78095822388BB0895413050
:1016000061F025B381E090E002C0880F991F6A95D0
:10161000E2F78095822385BB089525B381E090E0B1
:1016200002C0880F991F6A95E2F7282B25BB089501
:1016300028B381E090E002C0880F991F6A95E2F715
:10164000282B28BB08952BB381E090E002C0880FBF
:10165000991F6A95E2F7282B2BBB089522B381E0EE
:1016600090E002C0880F991F6A95E2F7282B22BBF1
:1016700008958130A9F0813028F08230C1F08330A4
:1016800041F008958BB3462360958623842B8BBB52
:1016900008958BB3462360958623842B82BB0895DF
:1016A0008BB3462360958623842B88BB08958BB328
:1016B000462360958623842B85BB08958130E9F00D
:1016C000813028F0823021F1833061F008952BB30E
:1016D00081E090E002C0880F991F6A95E2F7282701
:1016E0002BBB089522B381E090E002C0880F991FC0
:1016F0006A95E2F7282722BB089528B381E090E09D
:1017000002C0880F991F6A95E2F7282728BB089521
:1017100025B381E090E002C0880F991F6A95E2F737
:10172000282725BB08958130D1F0813030F08230F8
:10173000F9F0833059F080E0089589B390E002C059
:10174000959587956A95E2F78170089580B390E04A
:1017500002C0959587956A95E2F78170089586B3E2
:1017600090E002C0959587956A95E2F7817008959B
:1017700083B390E002C0959587956A95E2F78170F2
:1017800008953E9A87E886B9089597B1987F982B77
:1017900097B9369A349BFECF349A24B145B1942F31
:1017A00080E030E0282B392BC9010895991B79E09E
:1017B00004C0991F961708F0961B881F7A95C9F7E1
:1017C00080950895AA1BBB1B51E107C0AA1FBB1F30
:1017D000A617B70710F0A61BB70B881F991F5A95BD
:1017E000A9F780959095BC01CD0108952F923F9265
:1017F0004F925F926F927F928F929F92AF92BF9221
:10180000CF92DF92EF92FF920F931F93CF93DF93CC
:10181000CDB7DEB7CA1BDB0B0FB6F894DEBF0FBE29
:10182000CDBF09942A88398848885F846E847D8476
:101830008C849B84AA84B984C884DF80EE80FD8078
:101840000C811B81AA81B981CE0FD11D0FB6F894EE
:0E185000DEBF0FBECDBFED010895F894FFCFAF
:10185E00436F756E746572203D200000000000001D
:10186E000000000001020203030303040404040445
:10187E00040404050505050505050505050505050D
:10188E0005050506060606060606060606060606ED
:10189E0006060606060606060606060606060606DA
:1018AE0006060607070707070707070707070707BD
:1018BE0007070707070707070707070707070707AA
:1018CE00070707070707070707070707070707079A
:1018DE00070707070707070707070707070707078A
:1018EE00070707080808080808080808080808086D
:1018FE00080808080808080808080808080808085A
:10190E000808080808080808080808080808080849
:10191E000808080808080808080808080808080839
:10192E000808080808080808080808080808080829
:10193E000808080808080808080808080808080819
:10194E000808080808080808080808080808080809
:10195E0008080808080808080808080808080808F9
:10196E000808080A1F1F1F1F0E0400041F11111163
:10197E0011111F041F111111111F1F041F1111111D
:10198E001F1F1F041F11111F1F1F1F041F111F1FB9
:10199E001F1F1F041F1F1F1F1F1F1F0000010105F8
:0419AE000515150006
:00000001FF
