:100000000C942A000C9447000C9447000C94470071
:100010000C9447000C9447000C9447000C940F0973
:100020000C9447000C9447000C9447000C94470034
:100030000C9447000C9419160C9447000C9447003C
:100040000C9447000C9447000C9447000C94470014
:100050000C94470011241FBECFE5D8E0DEBFCDBF12
:1000600011E0A0E6B0E0EAE2F3E302C005900D92F1
:10007000A83DB107D9F714E0A8EDB1E001C01D9289
:10008000A33FB107E1F70E940D120C9493190C9451
:100090000000EF92FF920F931F937B018C0120E0F1
:1000A00030E040E05FE40E94190388238CF0C8012F
:1000B000B70120E030E040E05FE40E94C1010E940F
:1000C00049039B01AC01205030404040504806C0DD
:1000D000C801B7010E9449039B01AC01B901CA01E3
:1000E0001F910F91FF90EF900895A0E0B0E0EBE733
:1000F000F0E00C943D19DC012B01FA019C91923047
:1001000008F439C1EB018881823008F433C194309E
:1001100069F4843009F02FC111969C91119789815F
:10012000981709F428C1ACE7B0E025C1843009F480
:1001300021C18230A9F4923009F01DC19A01AD01AC
:1001400088E0EA010990AE01E90109929E0181501F
:10015000C1F7E201898111969C918923818308C1AD
:10016000923009F407C112962D903C901397EB0141
:100170008A819B811496AD90BD90CD90DC901797AD
:10018000EC80FD800E811F819101281B390BB90184
:1001900037FF04C066277727621B730B6032710537
:1001A0000CF061C0121613066CF537014801062EDB
:1001B00004C096948794779467940A94D2F721E0C8
:1001C00030E040E050E004C0220F331F441F551FB1
:1001D0006A95D2F721503040404050402E213F21B7
:1001E00040235123211531054105510521F021E01E
:1001F00030E040E050E079018A01E628F72808293C
:1002000019293CC0232BD1F1260E371E350146019A
:10021000062E04C096948794779467940A94D2F734
:1002200021E030E040E050E004C0220F331F441FC3
:10023000551F6A95D2F721503040404050402A2146
:100240003B214C215D21211531054105510521F04E
:1002500021E030E040E050E059016A01A628B728CB
:10026000C828D9280BC0821593052CF01C01AA249C
:10027000BB24650103C0EE24FF24870111969C91E5
:10028000D20111968C91981709F445C0992339F041
:10029000A80197012A193B094C095D0906C0A6016E
:1002A00095012E193F09400B510B57FD08C01182D3
:1002B0003382228224833583468357831DC081E0A5
:1002C00081833382228288279927DC01821B930B4A
:1002D000A40BB50B84839583A683B7830DC0220F2F
:1002E000331F441F551F24833583468357838281E0
:1002F000938101979383828324813581468157813D
:10030000DA01C9010197A109B1098F5F9F4FAF4F72
:10031000BF4328F30BC0918333822282EA0CFB1C7B
:100320000C1D1D1DE482F5820683178383E0808304
:10033000248135814681578157FF1AC0C901AA27F8
:1003400097FDA095BA2F81709070A070B0705695EF
:10035000479537952795822B932BA42BB52B848318
:100360009583A683B7838281938101969383828349
:10037000DF0101C0D201CD01CDB7DEB7E2E10C94BF
:100380005919A0E2B0E0E7ECF1E00C944919698357
:100390007A838B839C832D833E834F835887E9E048
:1003A000EE2EF12CEC0EFD1ECE010196B7010E943F
:1003B0003A058E010F5E1F4FCE010596B8010E94CF
:1003C0003A058A8991E089278A8BC701B801AE0175
:1003D000475E5F4F0E9475000E946504A096E6E0AC
:1003E0000C946519A0E2B0E0E8EFF1E00C94491933
:1003F00069837A838B839C832D833E834F835887C5
:10040000F9E0EF2EF12CEC0EFD1ECE010196B701A6
:100410000E943A058E010F5E1F4FCE010596B8016E
:100420000E943A05C701B801AE01475E5F4F0E94C6
:1004300075000E946504A096E6E00C946519A0E2A0
:10044000B0E0E5E2F2E00C943D1969837A838B8396
:100450009C832D833E834F835887CE010196BE0136
:10046000675F7F4F0E943A05CE010596BE016F5E21
:100470007F4F0E943A059985923088F089898230B1
:10048000C8F0943019F4823051F404C0843029F457
:10049000923081F48CE790E0C6C0923049F420E0BD
:1004A0009A858A89981321E02A87CE010996BBC0D4
:1004B000823049F420E09A858A89981321E02A8BBA
:1004C000CE014196B0C02D843E844F8458886D88FB
:1004D0007E888F88988CEE24FF248701AA24BB2471
:1004E000650140E050E060E070E0E0E0F0E0C10174
:1004F00081709070892BE9F0E60CF71C081D191D1E
:100500009A01AB012A0D3B1D4C1D5D1D80E090E062
:10051000A0E0B0E0E614F7040805190520F481E036
:1005200090E0A0E0B0E0BA01A901480F591F6A1F8E
:100530007B1FAA0CBB1CCC1CDD1C97FE08C081E0F5
:1005400090E0A0E0B0E0A82AB92ACA2ADB2A3196B6
:10055000E032F10549F0660C771C881C991C569412
:10056000479437942794C3CFFA85EA892B893C892D
:100570008B859C85280F391F2E5F3F4F17C0CA01FE
:1005800081709070892B61F016950795F794E79428
:1005900080E090E0A0E0B0E8E82AF92A0A2B1B2BC3
:1005A00076956795579547952F5F3F4F77FDE7CF36
:1005B0000CC0440F551F661F771F17FD4160EE0CDE
:1005C000FF1C001F111F21503040403090E05907A0
:1005D00090E0690790E4790760F32B8F3C8FDB0193
:1005E000CA018F779070A070B07080349105A1051A
:1005F000B10561F447FD0AC0E114F10401051105DC
:1006000029F0405C5F4F6F4F7F4F40781A8EFE1786
:1006100011F081E08A8F4D8F5E8F6F8F78A383E01A
:10062000898FCE0149960E946504A096E2E10C9460
:100630005919A8E1B0E0EFE1F3E00C94491969839E
:100640007A838B839C832D833E834F83588789E0F5
:10065000E82EF12CEC0EFD1ECE010196B7010E9492
:100660003A058E010F5E1F4FCE010596B8010E941C
:100670003A058985823040F08989823028F0C701A7
:10068000B8010E94B20501C08FEF6896E6E00C94B5
:100690006519ACE0B0E0EFE4F3E00C944D19698328
:1006A0007A838B839C83CE010196BE016B5F7F4F63
:1006B0000E943A058D81823061F1823050F18430A0
:1006C00021F48E81882351F12EC02F81388537FD8A
:1006D00020C06E812F3131051CF06623F9F023C054
:1006E0008EE190E0821B930B29853A854B855C85D2
:1006F00004C056954795379527958A95D2F7662376
:10070000B1F050954095309521953F4F4F4F5F4F39
:100710000EC020E030E040E050E009C02FEF3FEF96
:100720004FEF5FE704C020E030E040E050E8B9015F
:10073000CA012C96E2E00C946919A8E0B0E0E3EA63
:10074000F3E00C9445197B018C016115710581055D
:10075000910519F482E0898360C083E089838EE18A
:10076000C82ED12CDC82CB82ED82FE820F831887CB
:10077000C801B7010E941604FC013197F7FF3BC086
:10078000222733272E1B3F0B57016801022E04C07E
:10079000D694C794B794A7940A94D2F740E050E057
:1007A00060E070E081E090E0A0E0B0E004C0880F7D
:1007B000991FAA1FBB1F2A95D2F70197A109B1095A
:1007C0008E219F21A023B1230097A105B10521F01F
:1007D00041E050E060E070E04A295B296C297D2906
:1007E0004D835E836F8378878EE190E08E1B9F0B35
:1007F0009C838B8312C0309781F00E2E04C0EE0CC8
:10080000FF1C001F111F0A94D2F7ED82FE820F8396
:100810001887CE1ADF0ADC82CB821A82CE010196BB
:100820000E9465042896EAE00C946119EF92FF9209
:100830000F931F937B018C0180E0E81680E0F8069F
:1008400081E0080780E0180788F48FEFE816F104CC
:100850000105110531F028F088E090E0A0E0B0E05B
:1008600017C080E090E0A0E0B0E012C080E0E816A1
:1008700080E0F80680E0080781E0180728F088E1AA
:1008800090E0A0E0B0E004C080E190E0A0E0B0E043
:1008900020E230E040E050E0281B390B4A0B5B0BB4
:1008A00004C016950795F794E7948A95D2F7F70157
:1008B000EC57FF4F8081281B310941095109C901BB
:1008C0001F910F91FF90EF900895DF92EF92FF92AA
:1008D0000F931F93FC01E480F58006811781D1807E
:1008E0008081823048F480E090E0A0E1B0E0E82A26
:1008F000F92A0A2B1B2BA5C0843009F49FC0823033
:1009000021F4EE24FF24870105C0E114F104010560
:10091000110519F4E0E0F0E096C0628173819FEF69
:10092000623879070CF05BC022E83FEF261B370BDB
:100930002A3131052CF020E030E040E050E02AC0C0
:10094000B801A701022E04C0769567955795479583
:100950000A94D2F781E090E0A0E0B0E004C0880FF4
:10096000991FAA1FBB1F2A95D2F70197A109B109A8
:100970008E219F21A023B1230097A105B10521F06D
:1009800081E090E0A0E0B0E09A01AB01282B392B88
:100990004A2B5B2BDA01C9018F779070A070B07081
:1009A00080349105A105B10539F427FF09C0205C09
:1009B0003F4F4F4F5F4F04C0215C3F4F4F4F5F4F42
:1009C000E0E0F0E02030A0E03A07A0E04A07A0E431
:1009D0005A0710F0E1E0F0E079018A0127C06038A1
:1009E000710564F5FB01E158FF4FD801C7018F770E
:1009F0009070A070B07080349105A105B10539F4F4
:100A0000E7FE0DC080E490E0A0E0B0E004C08FE31A
:100A100090E0A0E0B0E0E80EF91E0A1F1B1F17FFD0
:100A200005C016950795F794E794319687E01695DB
:100A30000795F794E7948A95D1F705C0EE24FF2433
:100A40008701EFEFF0E06E2F679566276795902F8F
:100A50009F77D794DD24D7948E2F8695492F462BE8
:100A6000582F5D29B701CA011F910F91FF90EF9098
:100A7000DF900895FC01DB01408151812281622FCA
:100A80006F7770E0221F2227221F9381892F880F02
:100A9000822B282F30E0991F9927991F11969C933C
:100AA000119721153105A9F541155105610571050C
:100AB00011F482E037C082E89FEF13969C938E93E7
:100AC00012979A01AB0167E0220F331F441F551F95
:100AD0006A95D1F783E08C930DC0220F331F441F1A
:100AE000551F12968D919C911397019713969C9385
:100AF0008E931297203080E0380780E0480780E42A
:100B0000580758F314962D933D934D935C93179784
:100B100008952F3F310579F441155105610571059F
:100B200019F484E08C93089564FF03C081E08C93F2
:100B300012C01C9210C02F57304013963C932E9336
:100B4000129783E08C9387E0440F551F661F771F31
:100B50008A95D1F7706414964D935D936D937C9351
:100B6000179708951F93DC01FB019C91923008F4C4
:100B700047C08081823008F443C0943051F411960C
:100B80001C91843099F58181682F70E0611B710997
:100B90003FC0843021F0923031F48230B9F181814C
:100BA000882389F12DC011961C9111978230F1F0A4
:100BB00081811817D9F412962D913C911397828157
:100BC00093818217930794F028173907BCF0149685
:100BD0008D919D910D90BC91A02D248135814681F0
:100BE0005781281739074A075B0718F4112341F08A
:100BF0000AC082179307A407B50740F4112319F020
:100C000061E070E005C06FEF7FEF02C060E070E070
:100C1000CB011F910895EF92FF920F931F93FC0158
:100C20000580F681E02DE680F7808701045F1F4F85
:100C3000C8010E94E41189E092E0B8010E947E118F
:100C400020E0E091D801F091D901D70156969C910E
:100C50008689981708F021E0822F1F910F91FF904D
:100C6000EF900895FF920F931F93CF93DF9380919E
:100C70000902882339F199E0F92EF894E0910E02E7
:100C8000F0910F0206811781C8010C960E94E411B1
:100C90007894E8012296CE010E94E411F801968929
:100CA0008091DA01891710F49093DA019F9DC001B9
:100CB00011248F519E4FBE010E947E118091090226
:100CC0008823D9F60E948B0C2091DB013091DC0146
:100CD000821B930B9093DE018093DD012091DF0155
:100CE0003091E00189E0F82E07C0E0910502F09113
:100CF00006028081882341F58091DD019091DE011B
:100D0000009709F45DC02F5F3F4F3093E0012093BF
:100D1000DF0101979093DE018093DD0121153105FC
:100D200021F78091050290910602E0910702F0916F
:100D30000802F0930602E093050290930802809364
:100D4000070280818823C1F20580F681E02DC681EB
:100D5000D7818A819B812817390770F2F8948E0118
:100D60000E5F1F4FC8010E94E4118C899D89892B59
:100D700021F0CE010C960E94E41178949E89809116
:100D8000DA01891710F49093DA019F9DC0011124B4
:100D90008F519E4FB8010E947E11E0910502F091A3
:100DA00006028081882309F05CC02091DF01309128
:100DB000E0018091DD019091DE01009709F0A3CF61
:100DC0003093DC012093DB012091DA0189E0289F38
:100DD000F0011124EF51FE4F8081882389F42223F2
:100DE00051F199E002C0222361F12150299FF001C5
:100DF0001124EF51FE4F80818823A9F32093DA015B
:100E0000A181B28112960D90BC91A02DB283A183D5
:100E1000CF010396A817B907E1F01696ED91FC9162
:100E20001797F093D901E093D80120813181CF0148
:100E30006789F9010995DF91CF911F910F91FF907B
:100E400008951092DA01DF91CF911F910F91FF90D9
:100E5000089512968D919C91139792838183DC0162
:100E6000DCCF0580F681E02DC681D7818A819B8108
:100E70002091DF013091E0012817390708F43CCFB9
:100E80006DCF0F931F93CF93DF93EB010091DF01A1
:100E90001091E001080F191F8091D8019091D9019C
:100EA00002960E94E411E091D801F091D9011383D8
:100EB00002838091DF019091E00108171907C0F4C7
:100EC00032968091070290910802BF010E94A711FB
:100ED000209749F06091D8017091D901645F7F4FEC
:100EE000CE010E94A711DF91CF911F910F9108951C
:100EF00032968091050290910602BF010E94A711CF
:100F0000E7CFAF92BF92CF92DF92EF92FF920F9313
:100F10001F93CF93DF936C01B62EA42E8AE190E04D
:100F20000E940F08EC01009709F442C08091D8019B
:100F30009091D901892BF1F1EB2CBB2099F5198EF9
:100F4000188EEE8AAF8AFE01C192D1928F01CF0135
:100F50000E947A11CE010C960E947A11D987C88717
:100F6000DB8BCA8B85E090E08E1991099D878C8779
:100F70009E898091DA018917C0F089E0989FC001AD
:100F800011248F519E4FB8010E947E1181E0DF91A4
:100F9000CF911F910F91FF90EF90DF90CF90BF9076
:100FA000AF900895EE24E394CACF9093DA01E5CF91
:100FB0008FEFEDCFD093D901C093D80181EE91E0AE
:100FC0000E946A118AEE91E00E946A1123EFE22EDC
:100FD00021E0F22EC7010E946A110CEF11E0C80156
:100FE0000E946A1189E092E00E946A11F092060262
:100FF000E092050210930802009307029DCF089526
:101000001092130210921202089528E532E08091A6
:10101000120290911302281B390BC90108950F93F6
:101020001F93CF93DF938C010E94850C8091120255
:10103000909113029801280F391F42E02835340798
:1010400050F0C0E0D0E00E949D0ECE01DF91CF9124
:101050001F910F9108958217930798F7EC01CC5ECA
:10106000DD4F3093130220931202EDCFFC0191E18A
:10107000908322E2229383E382936293729312928B
:1010800080E88293129282E0829383E0829384E0EC
:10109000829385E0829386E0829387E0829388E062
:1010A000829389E0829380E18293929382E182939A
:1010B00083E1829384E1829385E1829386E1829346
:1010C00087E1829388E1829389E1829380E282932F
:1010D00081E28293229383E282934293529386E247
:1010E000829387E2829388E2829389E2829380E30B
:1010F000829381E382933197CF0108951BBC89EFDE
:101100008ABD8BE08EBD89B7806189BFA0916C04D8
:10111000B0916D04CD91CDBFDD91DEBFFF91EF9118
:10112000DF91CF91BF91AF919F918F917F916F91FF
:101130005F914F913F912F911F910F91FF90EF90F1
:10114000DF90CF90BF90AF909F908F907F906F90E7
:101150005F904F903F902F901F900F900FBE0F9079
:10116000089581E0089508950F920FB6F8940F92B4
:101170001F9211242F923F924F925F926F927F9213
:101180008F929F92AF92BF92CF92DF92EF92FF9297
:101190000F931F932F933F934F935F936F937F937F
:1011A0008F939F93AF93BF93CF93DF93EF93FF936F
:1011B000A0916C04B0916D040DB60D920EB60D9217
:1011C0000E94780D0E949F0CA0916C04B0916D0458
:1011D000CD91CDBFDD91DEBFFF91EF91DF91CF913A
:1011E000BF91AF919F918F917F916F915F914F913F
:1011F0003F912F911F910F91FF90EF90DF90CF9033
:10120000BF90AF909F908F907F906F905F904F9026
:101210003F902F901F900F900FBE0F9008950E9447
:10122000B40818950F920FB6F8940F921F921124DC
:101230002F923F924F925F926F927F928F929F92E6
:10124000AF92BF92CF92DF92EF92FF920F931F93D4
:101250002F933F934F935F936F937F938F939F93BE
:10126000AF93BF93CF93DF93EF93FF93A0916C0461
:10127000B0916D040DB60D920EB60D920E949F0CAA
:10128000A0916C04B0916D04CD91CDBFDD91DEBF16
:10129000FF91EF91DF91CF91BF91AF919F918F918E
:1012A0007F916F915F914F913F912F911F910F917E
:1012B000FF90EF90DF90CF90BF90AF909F908F9076
:1012C0007F906F905F904F903F902F901F900F9066
:1012D0000FBE0F900895FC010FB6F8940F92828D07
:1012E0000F900FBE0895FC01828D0895FC01828D40
:1012F00090E0882309F491E0892F0895FC01928DF4
:1013000020E0838D981711F0822F089521E0822F1D
:1013100008950F931F938C01FC01808191810E949D
:10132000FF07C8010E94FF071F910F9108950F93B7
:101330001F93CF93DF93EC01FB018A018A8D8823F1
:1013400011F16881798161157105A1F04C8D8E8153
:101350009F81840F911D9F838E832A813B818217F9
:10136000930710F07F836E836E817F81CF0150E001
:101370000E9474198A8D81508A8F8D8D8F3F41F024
:101380008F5F8D8F81E0DF91CF911F910F91089535
:101390008885882331F481E0DF91CF911F910F91EF
:1013A0000895CE0108960E94350D8823A1F381E0AF
:1013B000F8018083E8CFCF93DF93EC01842F4C8D2D
:1013C0004423B9F08823D9F48C819D8150E00E9498
:1013D00074198C8D2C813D81280F311D3D832C8308
:1013E0008A819B812817390720F0888199819D8304
:1013F0008C838A8D8F5F8A8FDF91CF9108958E8144
:101400009F8150E00E9474198C8D90E044275527ED
:10141000481B590B8E819F81840F951F9F838E835C
:10142000288139818217930720F78A819B81840F55
:10143000951F9F838E838A8D8F5F8A8FDF91CF91D7
:1014400008950F931F93CF93DF93EC018A019A8D38
:101450008B8D981730F080E0DF91CF911F910F9125
:101460000895CE01422F0E94DB098E8D8F3F41F0FF
:101470008F5F8E8F81E0DF91CF911F910F91089543
:101480008989882311F481E0E7CFCE0141960E943B
:10149000350D8823C1F381E0F8018083DDCF0F9300
:1014A0001F93CF93DF93EC010FB6F8940F928E8DBC
:1014B0001816DCF489898823C1F08E010F5E1F4F56
:1014C00008C08E8D81508E8F18167CF489898823F0
:1014D00061F0C8010E94350D882399F30E94310DF7
:1014E0008E8D81508E8F18168CF38FEF8E8F0F900C
:1014F0000FBE0FB6F8940F928D8D1816DCF4888508
:101500008823C1F08E01085F1F4F08C08D8D815068
:101510008D8F18167CF48885882361F0C8010E949D
:10152000350D882399F30E94310D8D8D81508D8F5B
:1015300018168CF38FEF8D8F0F900FBEDF91CF9128
:101540001F910F9108957F928F929F92AF92BF92B9
:10155000CF92DF92EF92FF920F931F93DF93CF937F
:1015600000D000D00F92CDB7DEB78C01862E772E3B
:101570005D834C83922E91E1A92EB12CA00EB11E59
:1015800020E07E010894E11CF11C84E0C82ED12CDF
:10159000CC0EDD1E0FB6F8940F92F801828D8823D1
:1015A00009F04AC08C819D81892B09F472C02223E5
:1015B00009F43EC00F900FBE0E94850C0FB6F89440
:1015C0000F92F801858D8F3F89F1F801868D8F3F4D
:1015D00059F10F900FBEC701B6010E94F40C882389
:1015E00009F06DC00FB6F8940F92F801828D0F903C
:1015F0000FBE882391F46C817D81C5010E94800E0D
:10160000C8010E944F0A0E949D0E882311F021E01C
:10161000C1CF0E94120921E0BDCFC8010E944F0A2C
:101620000E949D0E21E0B6CF168ED3CF158ECDCF62
:10163000C7010E94E90CBECFE680F780608171810E
:1016400061157105A1F0448D9701240F311D378379
:101650002683828193812817390708F041C0F80159
:1016600066817781882D972D50E00E94741999200A
:1016700069F5F801828D8150828F8085882361F120
:10168000C80108960E94350D813031F50E9412097B
:1016900023C00F900FBE80E00F900F900F900F901F
:1016A0000F90CF91DF911F910F91FF90EF90DF90FE
:1016B000CF90BF90AF909F908F907F900895C8017A
:1016C0000E944F0A0E949D0E80E0E6CFF801F7824B
:1016D000E6828189882339F40F900FBE81E0DCCF48
:1016E00077836683BCCFC5010E94350D8823A1F3A3
:1016F000CDCF7F928F929F92AF92BF92CF92DF9287
:10170000EF92FF920F931F93DF93CF9300D000D0FF
:101710000F92CDB7DEB78C014B015D834C83722EE7
:1017200048E0A42EB12CA80EB91E20E07E0108943A
:10173000E11CF11C34E0C32ED12CCC0EDD1E0FB603
:10174000F8940F92F801928D838D981708F449C090
:101750008C819D81892B09F463C0222371F10F9044
:101760000FBE0E94850C0FB6F8940F92F801858D7C
:101770008F3F09F1F801868D8F3FD9F00F900FBE92
:10178000C701B6010E94F40C882309F04DC00FB6C2
:10179000F8940F92F801928D0F900FBEF801838D8F
:1017A000981779F0C8010E944F0A0E949D0E21E00F
:1017B000C6CF168EE3CF158EDDCFC7010E94E90C90
:1017C000CECF6C817D81C5010E94800EC8010E9430
:1017D0004F0A0E949D0E882351F70E94120921E0B2
:1017E000AECFC801B401472D0E94DB09F801818901
:1017F000882309F50F900FBE81E00F900F900F9096
:101800000F900F90CF91DF911F910F91FF90EF906C
:10181000DF90CF90BF90AF909F908F907F90089572
:101820000F900FBE80E0E9CFC8010E944F0A0E94CE
:101830009D0E80E0E2CFC80141960E94350D8130B7
:10184000C9F60E941209D6CFAF92BF92CF92DF9213
:10185000EF92FF920F931F93CF93DF93182F062FD2
:10186000882371F420E030E0C901DF91CF911F910E
:101870000F91FF90EF90DF90CF90BF90AF900895C1
:101880008FE190E00E940F08EC01009759F3C12E00
:10189000DD24A02EBB24AC9C7001AD9CF00CBC9C44
:1018A000F00C1124C70101960E940F089C01998336
:1018B0008883009721F1E80EF91EFB82EA821A8ED6
:1018C0009D838C830894C108D108CA9CC001CB9C1D
:1018D000900DDA9C900D1124280F391F3F832E8321
:1018E0001B8F0C8F8FEF8D8F8E8FCE0108960E94ED
:1018F0006A11CE0141960E946A119E01B5CFCE01B8
:101900000E94FF0720E030E0AFCF809172048F5F2C
:101910008093720408950FB6F8940F92209170048A
:10192000309171040F900FBEC90108952091700489
:1019300030917104C90108958091750408958091D2
:1019400072048823D1F5E091730489E0E89FF001E7
:101950001124E658FB4F8081882381F499E080911F
:101960007304815080937304E0917304E99FF00144
:101970001124E658FB4F8081882389F390917304EA
:1019800089E0989FD0011124A658BB4F1196ED9184
:10199000FC9112970280F381E02D1296FC93EE9356
:1019A0001197CD010396E817F90759F086819781C1
:1019B00090936D0480936C04089581E080936E048D
:1019C00008958281938112969C938E931197FC01C6
:1019D000EDCFFC0180916F04808380917004909121
:1019E0007104928381830895FC01DB010FB6F894A2
:1019F0000F9290916F048081891781F1418152810A
:101A000080917004909171048417950718F5809166
:101A10007004909171042D913C911197841B950B4A
:101A200082179307B8F48091700490917104281B79
:101A3000390B240F351F2D933C9380916F048083C5
:101A400080917004909171049283818380E00F9063
:101A50000FBE089581E00F900FBE0895418152811D
:101A6000D6CF81E080936E0408950F931F93CF9398
:101A7000DF93FC010580F681E02D06811781E801E6
:101A80002C96CE010E94E41180917204882339F5CE
:101A9000E8012296CE010E94E411D80156969C914D
:101AA00080917304891708F189E0989FC00111247F
:101AB00086589B4FBE010E947E11E0916C04F0910C
:101AC0006D0420E0D80156969C918689981708F0FD
:101AD00021E0822FDF91CF911F910F9108958DEB1F
:101AE00094E0BE010E947E11E8CF90937304DCCF96
:101AF000FF920F931F93CF93DF93809172048823FB
:101B000009F09FC0809170049091710401969093A8
:101B10007104809370048091700490917104892BFA
:101B200019F52091B9043091BA048091BB049091C9
:101B3000BC049093BA048093B9043093BC042093FE
:101B4000BB0480916F048F5F80936F04E091B904B0
:101B5000F091BA048081882309F07EC08FEF9FEF57
:101B600090938501809384012091700430917104D9
:101B700080918401909185012817390708F45BC092
:101B8000E091B904F091BA048081882309F44DC032
:101B9000E091B904F091BA040580F681E02DC68188
:101BA000D7812A813B8180917004909171048217C2
:101BB000930708F462C089E0F82E13C0E091B904DD
:101BC000F091BA040580F681E02DC681D7812A8183
:101BD0003B8180917004909171048217930708F4FF
:101BE0004CC08E010E5F1F4FC8010E94E4118C890A
:101BF0009D89892B21F0CE010C960E94E4119E89CB
:101C000080917304891710F4909373049F9DC00111
:101C1000112486589B4FB8010E947E11E091B904AF
:101C2000F091BA048081882349F68FEF9FEF90935B
:101C3000850180938401DF91CF911F910F91FF90D7
:101C40000895809174048F5F80937404DF91CF9125
:101C50001F910F91FF900895E091B904F091BA049B
:101C60000580F681E02D0680F781E02D8281938149
:101C7000909385018093840177CF309385012093E1
:101C80008401DF91CF911F910F91FF900895CF9321
:101C9000DF93EC01E0916C04F0916D0493838283F7
:101CA0008091700490917104C817D907D0F0809189
:101CB000B9049091BA0460916C0470916D046E5FE8
:101CC0007F4F0E94A7118091840190918501C817D0
:101CD000D90720F4D0938501C0938401DF91CF917F
:101CE00008958091BB049091BC0460916C04709144
:101CF0006D046E5F7F4F0E94A711DF91CF91089511
:101D00000F931F938B0160916C0470916D04645F5D
:101D10007F4F0E94A71180916C0490916D040296F0
:101D20000E94E4118091700490917104800F911FC2
:101D30000E94470E1F910F910895CF92DF92FF925C
:101D40000F931F93DF93CF930F92CDB7DEB70FB6EC
:101D5000F8940F9280917204815080937204809164
:101D60007204882309F04EC080917504882309F419
:101D700049C0198299E0F92E8091BD04882389F128
:101D8000E091C204F091C304C680D780C6010C96CE
:101D90000E94E41186010E5F1F4FC8010E94E411EA
:101DA000D60156969C9180917304891710F49093F4
:101DB00073049F9DC001112486589B4FB8010E9457
:101DC0007E11E0916C04F0916D04D60156969C91C1
:101DD0008689981788F2B1E0B9838091BD04882381
:101DE00079F6809174048823C9F4E981E13021F007
:101DF00080916E04813031F410926E040E941209B9
:101E000081E001C080E00F900FBE0F90CF91DF9175
:101E10001F910F91FF90DF90CF90089580917404EF
:101E2000882351F30E94780D80917404815080932F
:101E30007404809174048823A9F7DECF0F931F9355
:101E4000CF93DF93EC01009739F40E941209DF91E0
:101E5000CF911F910F910895809172048F5F8093AD
:101E60007204009170041091710480916C0490913F
:101E70006D0402960E94E411CE01800F911F0E9412
:101E8000470E0E949D0E882301F3DF91CF911F9191
:101E90000F910895CF93DF93FC01EB0180917204C1
:101EA0008F5F8093720420813181C20FD31F809194
:101EB00070049091710482179307F8F4C217D30746
:101EC00030F580917004909171048C179D07F8F49F
:101ED000D183C08380916C0490916D0402960E941E
:101EE000E411CE010E94470E0E949D0E882311F43A
:101EF0000E941209DF91CF910895C217D30740F3D2
:101F000080917004909171048C179D0708F3D18320
:101F1000C083EACFEF92FF920F931F93CF93DF938B
:101F20007C010FB6F8940F9280916C0490916D042F
:101F3000E816F90681F1E114F10479F1E7018E0167
:101F40000E5F1F4FC8010E94E4118C899D89892B67
:101F500021F0CE010C960E94E41186EC94E0B801C9
:101F60000E947E11809177048F5F80937704809127
:101F700078048F5F809378040F900FBE8091760471
:101F8000882311F0EF2871F0DF91CF911F910F910D
:101F9000FF90EF900895EE24FF24C0916C04D0913F
:101FA0006D04CDCF0E941209EFCFF8941092760401
:101FB0000E94B30808950F931F938091770488239C
:101FC000E1F3809172048F5F809372041091C604D4
:101FD0000E949D0E112389F30FB6F8940F92E091A1
:101FE000CB04F091CC0406811781C80102960E94AF
:101FF000E411809175048150809375048091770479
:102000008150809377040F900FBEF8018789908DDF
:102010000E94FF07C8010E94FF07CFCF2F923F9277
:102020004F925F926F927F928F929F92AF92BF92E8
:10203000CF92DF92EF92FF920F931F93DF93CF9394
:1020400000D00F92CDB7DEB71C014B015A01290118
:102050000983370181E290E00E940F088A839B8305
:102060008A819B81892B09F4CDC0C114D10409F464
:10207000BBC0EA81FB81D08EC78AC60165EA70E0E9
:10208000A5010E947D190894A108B108EA81FB818D
:10209000E788F08CEA0CFB1CCF014996B40148E0BC
:1020A00050E00E948419EA81FB8110A21981153049
:1020B00008F098C0EA81FB81168B32E0C32ED12C48
:1020C000CE0EDF1EC6010E947A118A819B810C967A
:1020D0000E947A118A819B81FC019187808785E02B
:1020E00090E0811B910995878487F38BE28BC70170
:1020F000B101A2010E943608EA81FB8191838083AD
:102100006114710421F0CF01F301918380830FB634
:10211000F8940F92809175048F5F8093750480917D
:102120006C0490916D04892B09F46EC08091760443
:10213000882371F4E0916C04F0916D048689998193
:10214000981730F0EA81FB81F0936D04E0936C0402
:10215000EA81FB81968980917904891710F4909324
:102160007904809178048F5F80937804EA81FB8101
:10217000968980917304891718F490937304968953
:1021800089E0989FC001112486589B4FB6010E9498
:102190007E110F900FBE80917604882361F0E0914C
:1021A0006C04F0916D048689F9818F1720F40E94E8
:1021B000120981E001C081E00F900F900F90CF9144
:1021C000DF911F910F91FF90EF90DF90CF90BF9024
:1021D000AF909F908F907F906F905F904F903F90C7
:1021E0002F90089514E066CFC5010E940F086C017E
:1021F000EA81FB81908F878B009709F03ECFCF015A
:102200000E94FF078FEFD8CFEA81FB81F0936D0426
:10221000E0936C0480917504813009F099CF0AE74E
:1022200014E0C8010E946A11075F1F4FF4E0073AEB
:102230001F07B9F727EAE22E24E0F22EC7010E9419
:102240006A1100EB14E0C8010E946A118DEB94E062
:102250000E946A1186EC94E00E946A11F092BA041E
:10226000E092B9041093BC040093BB0471CFAF9209
:10227000BF92CF92DF92EF92FF920F938BED9FE090
:1022800060E670E045E550E020E030E000E0EE245C
:10229000FF24CC24DD24AA24BB240E940E1081300C
:1022A00041F00F91FF90EF90DF90CF90BF90AF90F3
:1022B0000895F8948093760410927104109270043B
:1022C0000E947E080F91FF90EF90DF90CF90BF901B
:1022D000AF900895FC019C012D5F3F4F3283218315
:1022E0008FEF9FEF94838383368325833087278303
:1022F00010820895FC01118610860895CF93DF9314
:10230000AC01DB01EC0129813A81F90182819381E1
:1023100013969C938E93129789819A8115969C931C
:102320008E9314970280F381E02D75836483E90115
:102330007B836A83FA017283618319965C934E935F
:10234000189780818F5F8083DF91CF910895CF931D
:10235000DF93AC01EB01288139818FEF2F3F3807E4
:1023600079F1DA0113961296ED91FC911397808121
:1023700091812817390768F012960D90BC91A02D15
:102380001296ED91FC91139780819181281739075E
:1023900098F71296ED91FC911397FB83EA83D5830E
:1023A000C483BD83AC831396DC93CE931297598775
:1023B0004887FA0180818F5F8083DF91CF910895F4
:1023C000FA01A781B085E5CFCF93DF93DC011296A8
:1023D000ED91FC91139714968D919C91159795838F
:1023E00084831496CD91DC911597FB83EA8318962C
:1023F000ED91FC911997818192818A179B0751F089
:1024000019961C921E921897808181508083DF91CB
:10241000CF910895D283C183F3CFAF92BF92CF9271
:10242000DF92EF92FF920F9387E690E00E94FA15F9
:102430000E94EF120E9456130E94DB1585E690E081
:102440000E94071681E060E00E94240C9093D4045F
:102450008093D304009739F060E070E040E050E0F2
:1024600020E00E94790B81E060E00E94240C9093B0
:10247000D6048093D504009739F060E070E040E026
:1024800050E020E00E94790B8CE892E160E770E078
:1024900044E650E020E030E001E0EE24FF24CC24CC
:1024A000DD24AA24BB240E940E1082E692E166E796
:1024B00070E044E650E020E030E00E940E100E9400
:1024C0003711FFCF8091D5049091D60460E070E081
:1024D0004AE050E020E00E94A30A88EE93E00E94C8
:1024E0001E0F8091D3049091D40460E070E04AE024
:1024F00050E020E00E94A30A813021F70E940E13D1
:102500008091D5049091D60460E070E040E050E006
:1025100020E00E94790BD6CF8091D3049091D4040F
:1025200060E070E04AE050E020E00E94A30A88EEFC
:1025300093E00E941E0F8091D5049091D60460E034
:1025400070E04AE050E020E00E94A30A813021F7C9
:1025500080E00E940E138091D3049091D40460E037
:1025600070E040E050E020E00E94790BD5CF1F934F
:10257000182F809186018130D1F081E062E040E047
:102580000E94F21781E061E041E00E94F217812F82
:102590006AE00E941D199295907F80E060EF492FBC
:1025A0000E94611881E0809386011F91089562E086
:1025B00041E00E94F21781E061E040E00E94F217E2
:1025C000812F6AE00E941D19482F4295407F80E0CC
:1025D00060EF0E946118109286011F91089580E0BB
:1025E00064E041E00E94841780E065E041E00E94E1
:1025F000841780E066E041E00E94841780E067E095
:1026000041E00E94841781E061E041E00E9484176C
:1026100081E062E041E00E9484170895813079F002
:10262000813028F482E062E00E94861808958230AA
:1026300009F0089583E063E00E948618089582E01F
:1026400067E00E9486180895813089F0813030F467
:1026500082E062E040E00E94F2170895823009F0C3
:10266000089583E063E040E00E94F217089582E05D
:1026700067E040E00E94F2170895813089F08130D0
:1026800030F482E062E041E00E94F2170895823067
:1026900009F0089583E063E041E00E94F217089595
:1026A00082E067E041E00E94F217089582E062E074
:1026B00041E00E94841782E067E041E00E948417B5
:1026C00083E063E041E00E948417089581E063E0C5
:1026D00041E00E94F21785E08A95F1F781E063E01E
:1026E00040E00E94F21780E49FE10197F1F708951E
:1026F0001F93182F81E061E041E00E94F21780E013
:1027000060EF412F0E9461180E9466131295107F9E
:1027100080E060EF412F0E9461180E9466131F91B4
:1027200008950F931F938C0168EE73E00E9429199E
:10273000862F805D0E947813C80168EE73E00E94C6
:102740002919182F092F64E670E00E942919862F95
:10275000805D0E947813812F902F64E670E00E94C4
:102760002919182F092F6AE070E00E942919862F75
:10277000805D0E947813812F902F6AE070E00E94A4
:102780002919805D0E9478131F910F910895AF92CF
:10279000BF92CF92DF92EF92FF920F931F935B0154
:1027A0006C010E944900DC01CB017C010E94911365
:1027B0008EE20E94781300E010E0C801B7010E9489
:1027C0009D039B01AC01C601B5010E94C10120E03F
:1027D00030E048EC52E40E941F020E944900DC01F4
:1027E000CB010E9491131F910F91FF90EF90DF900A
:1027F000CF90BF90AF900895CF93DF93EC01888185
:10280000882331F00E947813219688818823D1F79C
:10281000DF91CF9108951F93182F81E061E040E090
:102820000E94F21780E060EF412F0E9461180E9421
:1028300066131295107F80E060EF412F0E946118AF
:102840000E9466131F910895882329F4862F8058CB
:102850000E940B140895813009F00895862F80544A
:102860000E940B140895CF92DF92EF92FF921F9374
:10287000CF93DF9380E064E041E00E94841780E022
:1028800065E041E00E94841780E066E041E00E943C
:10289000841780E067E041E00E94841781E061E0F6
:1028A00041E00E94841781E062E041E00E948417C9
:1028B00081E063E041E00E94841781E062E040E053
:1028C0000E94F21780E69AEE0197F1F783E00E94EA
:1028D0000B1480E29EE40197F1F783E00E940B1451
:1028E00080E991E00197F1F783E00E940B1482E008
:1028F0000E940B1488E20E940B14EE24FF2490E443
:10290000C92ED12C8C2D0E940B14E701CC0FDD1F9A
:10291000CC0FDD1FCC0FDD1FC957DE4F10E08991B2
:102920000E9478131F5F1830D1F70894E11CF11C46
:1029300088E090E0C80ED91E98E0E916F10411F77E
:1029400080E060E00E9424148CE00E940B14DF9170
:10295000CF911F91FF90EF90DF90CF900895AF92AD
:10296000BF92DF92EF92FF920F931F93CF93DF936B
:10297000DD24EE24FF2480E4A82E8CE9B82E0E2D51
:1029800083E06E2D40E00E94F217E701C953DE4F4D
:1029900014E083E0612F0E94BB18882351F4D88093
:1029A00083E0612F0E94BB188823D1F3C5010197F2
:1029B000F1F71F5F2496183061F783E0602F41E044
:1029C0000E94F2170894E11CF11C84E0E816F1045F
:1029D000B1F68D2DDF91CF911F910F91FF90EF9068
:1029E000DF90BF90AF90089583E060E041E00E94E7
:1029F000841783E061E041E00E94841783E062E095
:102A000041E00E94841783E063E041E00E94841764
:102A100083E064E040E00E94841783E065E040E0EA
:102A20000E94841783E066E040E00E94841783E000
:102A300067E040E00E94841783E064E00E94E918A8
:102A400083E065E00E94E91883E066E00E94E918EF
:102A500083E067E00E94E91883E060E041E00E94C3
:102A6000F21783E061E041E00E94F21783E062E048
:102A700041E00E94F21783E063E041E00E94F21718
:102A80000895FF920F931F938C010E94CC16C801EA
:102A90008070977080E5F82EF92A8F2D0E94FA1623
:102AA000802F0E94F2160E94DB168F2D0E940C17B9
:102AB0000E941F17182F0E94EB16812F1F910F9154
:102AC000FF900895FF920F931F938C01F62E80E0E4
:102AD00060E00E942414812F90E00E94911380E016
:102AE00068E00E942414802F90E00E9491130E94BD
:102AF000CC1681E060E00E942414C80180709770B9
:102B0000892F80650E94FA1681E060E00E942414FB
:102B1000802F0E94F21681E060E00E9424148F2D25
:102B20000E94F21681E060E00E9424140E94EB16DD
:102B30001F910F91FF9008950E94BD16089580E0A7
:102B400063E00E948618089580E063E040E00E9400
:102B5000F217089580E063E041E00E94F2170895C3
:102B600080E063E041E00E9484170895813089F09D
:102B7000813028F08230B1F090E0892F089581E013
:102B800060E00E94BB1890E08130B9F791E0892F96
:102B9000089581E064E00E94BB1890E08130B1F3B9
:102BA000892F089583E062E00E94BB1890E0813095
:102BB00069F3892F089581E060E040E00E94841766
:102BC00081E064E040E00E94841783E062E040E03E
:102BD0000E948417089581B5876081BD81B58860A2
:102BE00081BD089588E181BD81B5877F81BD08954C
:102BF000A895089590BD89B9549A539A80B5866A6C
:102C000080BD579A08955D9BFECF8CB90895FC0155
:102C10008081882339F05D9BFECF8CB9319680810D
:102C20008823C9F708955F9902C080E008958CB1A8
:102C300008951F920F920FB60F9211242F933F9376
:102C40004F935F936F937F938F939F93AF93BF93B4
:102C5000EF93FF93E091D804F0E08CB1E652FB4F84
:102C60008083E091D804F0E0E652FB4F80818D3004
:102C7000C9F08091D8048F5F8093D80480E00E94CF
:102C80000E13FF91EF91BF91AF919F918F917F9123
:102C90006F915F914F913F912F910F900FBE0F90C9
:102CA0001F9018951092D80481E08093D9040E9457
:102CB0000E13E7CF83B783BF089593B7982B93BFC5
:102CC000089583B78C7F83BF089582BF089582B72C
:102CD000089589B7816089BF089589B78E7F89BFBC
:102CE00008958CBF08958FB9779BFECF8FB108955B
:102CF0008FEF8FB9779BFECF8FB108958FB9779BF8
:102D0000FECF8FB10895779BFECF8FB108958FB915
:102D1000089581E065E040E00E94841781E064E06E
:102D200040E00E94841781E067E040E00E94841741
:102D300081E066E041E00E9484176E9A6C980895E5
:102D400081E065E041E00E94841781E064E041E0B9
:102D50000E94841781E067E041E00E94841781E0CF
:102D600066E040E00E94841781E064E041E00E9458
:102D7000F2176E9A6C9A689A08958CE080B986B7BB
:102D8000846486BF0895109A92B1880F982B92B9E7
:102D900086B7846486BF089580EA86BF06B607FEBC
:102DA000FDCF81B190E0887F883011F0892F0895A0
:102DB00091E0892F089586B7806A86BF06B607FE20
:102DC000FDCF81B190E0887F803111F0892F089587
:102DD00091E0892F089586B7806986BF06B607FE01
:102DE000FDCF089583B986B7806886BF06B607FE13
:102DF000FDCF0895880F83B986B7806886BF06B671
:102E000007FEFDCF81B190E0887F883111F0892FD6
:102E1000089591E0892F0895880F816083B986B75E
:102E2000806886BF06B607FEFDCF81B190E0887F3F
:102E3000803411F0892F089591E0892F089586B785
:102E4000806886BF06B607FEFDCF83B1089581B1C5
:102E5000887F08958FB780688FBF08958FB78F7769
:102E60008FBF0895813069F0813020F48BB7806482
:102E70008BBF0895823009F008958BB780628BBFB5
:102E800008958BB780688BBF0895813069F08130D9
:102E900020F48BB78F7B8BBF0895823009F00895A3
:102EA0008BB78F7D8BBF08958BB78F778BBF0895BE
:102EB000813089F0813020F485B7862B85BF089555
:102EC000823009F00895623061F06330D9F784B739
:102ED000806484BF089585B7660F660F862B85BF13
:102EE000089584B78F7B84BF0895E199FECF8EBB90
:102EF0009FBB6DBBE29AE19A0895E199FECF8EBB2C
:102F00009FBBE09A8DB30895813019F1813028F08C
:102F1000823069F1833079F008954423B1F52AB302
:102F200081E090E002C0880F991F6A95E2F78095D2
:102F300082238ABB0895442309F448C021B381E069
:102F400090E002C0880F991F6A95E2F7282B21BBF9
:102F50000895442381F527B381E090E002C0880FF3
:102F6000991F6A95E2F78095822387BB08954423D1
:102F7000B9F424B381E090E002C0880F991F6A95EC
:102F8000E2F78095822384BB08952AB381E090E024
:102F900002C0880F991F6A95E2F7282B2ABB089573
:102FA00024B381E090E002C0880F991F6A95E2F790
:102FB000282B24BB089527B381E090E002C0880F3E
:102FC000991F6A95E2F7282B27BB089521B381E06A
:102FD00090E002C0880F991F6A95E2F780958223DE
:102FE00081BB0895813029F1813028F0823079F158
:102FF000833081F00895413009F44DC02BB381E056
:1030000090E002C0880F991F6A95E2F780958223AD
:103010008BBB0895413009F449C022B381E090E0B0
:1030200002C0880F991F6A95E2F78095822382BBC0
:103030000895413029F128B381E090E002C0880F63
:10304000991F6A95E2F78095822388BB08954130E5
:1030500061F025B381E090E002C0880F991F6A9566
:10306000E2F78095822385BB089525B381E090E047
:1030700002C0880F991F6A95E2F7282B25BB089597
:1030800028B381E090E002C0880F991F6A95E2F7AB
:10309000282B28BB08952BB381E090E002C0880F55
:1030A000991F6A95E2F7282B2BBB089522B381E084
:1030B00090E002C0880F991F6A95E2F7282B22BB87
:1030C00008958130A9F0813028F08230C1F083303A
:1030D00041F008958BB3462360958623842B8BBBE8
:1030E00008958BB3462360958623842B82BB089575
:1030F0008BB3462360958623842B88BB08958BB3BE
:10310000462360958623842B85BB08958130E9F0A2
:10311000813028F0823021F1833061F008952BB3A3
:1031200081E090E002C0880F991F6A95E2F7282796
:103130002BBB089522B381E090E002C0880F991F55
:103140006A95E2F7282722BB089528B381E090E032
:1031500002C0880F991F6A95E2F7282728BB0895B7
:1031600025B381E090E002C0880F991F6A95E2F7CD
:10317000282725BB08958130D1F0813030F082308E
:10318000F9F0833059F080E0089589B390E002C0EF
:10319000959587956A95E2F78170089580B390E0E0
:1031A00002C0959587956A95E2F78170089586B378
:1031B00090E002C0959587956A95E2F78170089531
:1031C00083B390E002C0959587956A95E2F7817088
:1031D0000895813039F0813028F0823019F0833041
:1031E00061F008952BB381E090E002C0880F991F31
:1031F0006A95E2F7282B2BBB08952BB381E090E072
:1032000002C0880F991F6A95E2F7282B2BBB0895FF
:103210003E9A87E886B9089597B1987F982B97B919
:10322000369A349BFECF349A24B145B1942F80E076
:1032300030E0282B392BC9010895991B79E004C08F
:10324000991F961708F0961B881F7A95C9F78095E5
:103250000895AA1BBB1B51E107C0AA1FBB1FA617DD
:10326000B70710F0A61BB70B881F991F5A95A9F72F
:1032700080959095BC01CD0108952F923F924F9279
:103280005F926F927F928F929F92AF92BF92CF92F6
:10329000DF92EF92FF920F931F93CF93DF93CDB7FF
:1032A000DEB7CA1BDB0B0FB6F894DEBF0FBECDBF77
:1032B00009942A88398848885F846E847D848C8448
:1032C0009B84AA84B984C884DF80EE80FD800C8151
:1032D0001B81AA81B981CE0FD11D0FB6F894DEBF34
:1032E0000FBECDBFED010895FB01DC0102C00190CE
:1032F0000D9241505040D8F70895DC0101C06D9304
:1033000041505040E0F70895FB01DC01415050402E
:1033100048F001900D920020C9F701C01D92415064
:0A3320005040E0F70895F894FFCF45
:10332A0049444C4500556172742E2E2E2E0D0A000A
:10333A005441534B31005441534B320000000000BA
:10334A000000000000010202030303030404040452
:10335A000404040405050505050505050505050517
:10336A0005050505060606060606060606060606F7
:10337A0006060606060606060606060606060606E3
:10338A0006060606070707070707070707070707C7
:10339A0007070707070707070707070707070707B3
:1033AA0007070707070707070707070707070707A3
:1033BA000707070707070707070707070707070793
:1033CA000707070708080808080808080808080877
:1033DA000808080808080808080808080808080863
:1033EA000808080808080808080808080808080853
:1033FA000808080808080808080808080808080843
:10340A000808080808080808080808080808080832
:10341A000808080808080808080808080808080822
:10342A000808080808080808080808080808080812
:10343A000808080808080808080808080808080802
:10344A0008080808FFFF010A1F1F1F1F0E040004B7
:10345A001F11111111111F041F111111111F1F0426
:10346A001F1111111F1F1F041F11111F1F1F1F04DE
:10347A001F111F1F1F1F1F041F1F1F1F1F1F1F009A
:10348A00000101050515153738392F3435362A312B
:08349A0032332D63303D2B009D
:00000001FF
