:100000000C942A000C9447000C9447000C94470071
:100010000C9447000C9447000C9447000C94470044
:100020000C9447000C9447000C9447000C94470034
:100030000C9447000C9435100C9447000C94470026
:100040000C9447000C9447000C9447000C94470014
:100050000C94470011241FBECFE5D8E0DEBFCDBF12
:1000600011E0A0E6B0E0E0EDFFE202C005900D92E5
:10007000A43DB107D9F711E0A4EDB1E001C01D9294
:10008000A03FB107E1F70E9417070C94E6170C9404
:100090000000EF92FF920F931F937B018C0120E0F1
:1000A00030E040E05FE40E94F50388238CF0C80153
:1000B000B70120E030E040E05FE40E94C1010E940F
:1000C00055049B01AC01205030404040504806C0D0
:1000D000C801B7010E9455049B01AC01B901CA01D6
:1000E0001F910F91FF90EF900895A0E0B0E0EBE733
:1000F000F0E00C94AF17DC012B01FA019C919230D7
:1001000008F439C1EB018881823008F433C194309E
:1001100069F4843009F02FC111969C91119789815F
:10012000981709F428C1ACE8B0E025C1843009F47F
:1001300021C18230A9F4923009F01DC19A01AD01AC
:1001400088E0EA010990AE01E90109929E0181501F
:10015000C1F7E201898111969C918923818308C1AD
:10016000923009F407C112962D903C901397EB0141
:100170008A819B811496AD90BD90CD90DC901797AD
:10018000EC80FD800E811F819101281B390BB90184
:1001900037FF04C066277727621B730B6032710537
:1001A0000CF061C0121613066CF537014801062EDB
:1001B00004C096948794779467940A94D2F721E0C8
:1001C00030E040E050E004C0220F331F441F551FB1
:1001D0006A95D2F721503040404050402E213F21B7
:1001E00040235123211531054105510521F021E01E
:1001F00030E040E050E079018A01E628F72808293C
:1002000019293CC0232BD1F1260E371E350146019A
:10021000062E04C096948794779467940A94D2F734
:1002200021E030E040E050E004C0220F331F441FC3
:10023000551F6A95D2F721503040404050402A2146
:100240003B214C215D21211531054105510521F04E
:1002500021E030E040E050E059016A01A628B728CB
:10026000C828D9280BC0821593052CF01C01AA249C
:10027000BB24650103C0EE24FF24870111969C91E5
:10028000D20111968C91981709F445C0992339F041
:10029000A80197012A193B094C095D0906C0A6016E
:1002A00095012E193F09400B510B57FD08C01182D3
:1002B0003382228224833583468357831DC081E0A5
:1002C00081833382228288279927DC01821B930B4A
:1002D000A40BB50B84839583A683B7830DC0220F2F
:1002E000331F441F551F24833583468357838281E0
:1002F000938101979383828324813581468157813D
:10030000DA01C9010197A109B1098F5F9F4FAF4F72
:10031000BF4328F30BC0918333822282EA0CFB1C7B
:100320000C1D1D1DE482F5820683178383E0808304
:10033000248135814681578157FF1AC0C901AA27F8
:1003400097FDA095BA2F81709070A070B0705695EF
:10035000479537952795822B932BA42BB52B848318
:100360009583A683B7838281938101969383828349
:10037000DF0101C0D201CD01CDB7DEB7E2E10C94BF
:10038000CB17A0E2B0E0E7ECF1E00C94BB17698377
:100390007A838B839C832D833E834F835887E9E048
:1003A000EE2EF12CEC0EFD1ECE010196B7010E943F
:1003B00046068E010F5E1F4FCE010596B8010E94C2
:1003C00046068A8991E089278A8BC701B801AE0168
:1003D000475E5F4F0E9475000E947105A096E6E09F
:1003E0000C94D717A0E2B0E0E8EFF1E00C94BB1753
:1003F00069837A838B839C832D833E834F835887C5
:10040000F9E0EF2EF12CEC0EFD1ECE010196B701A6
:100410000E9446068E010F5E1F4FCE010596B80161
:100420000E944606C701B801AE01475E5F4F0E94B9
:1004300075000E947105A096E6E00C94D717A0E223
:10044000B0E0E5E2F2E00C94AF1769837A838B8326
:100450009C832D833E834F835887CE010196BE0136
:10046000675F7F4F0E944606CE010596BE016F5E14
:100470007F4F0E9446069985923088F089898230A4
:10048000C8F0943019F4823051F404C0843029F457
:10049000923081F48CE890E0C6C0923049F420E0BC
:1004A0009A858A89981321E02A87CE010996BBC0D4
:1004B000823049F420E09A858A89981321E02A8BBA
:1004C000CE014196B0C02D843E844F8458886D88FB
:1004D0007E888F88988CEE24FF248701AA24BB2471
:1004E000650140E050E060E070E0E0E0F0E0C10174
:1004F00081709070892BE9F0E60CF71C081D191D1E
:100500009A01AB012A0D3B1D4C1D5D1D80E090E062
:10051000A0E0B0E0E614F7040805190520F481E036
:1005200090E0A0E0B0E0BA01A901480F591F6A1F8E
:100530007B1FAA0CBB1CCC1CDD1C97FE08C081E0F5
:1005400090E0A0E0B0E0A82AB92ACA2ADB2A3196B6
:10055000E032F10549F0660C771C881C991C569412
:10056000479437942794C3CFFA85EA892B893C892D
:100570008B859C85280F391F2E5F3F4F17C0CA01FE
:1005800081709070892B61F016950795F794E79428
:1005900080E090E0A0E0B0E8E82AF92A0A2B1B2BC3
:1005A00076956795579547952F5F3F4F77FDE7CF36
:1005B0000CC0440F551F661F771F17FD4160EE0CDE
:1005C000FF1C001F111F21503040403090E05907A0
:1005D00090E0690790E4790760F32B8F3C8FDB0193
:1005E000CA018F779070A070B07080349105A1051A
:1005F000B10561F447FD0AC0E114F10401051105DC
:1006000029F0405C5F4F6F4F7F4F40781A8EFE1786
:1006100011F081E08A8F4D8F5E8F6F8F78A383E01A
:10062000898FCE0149960E947105A096E2E10C9453
:10063000CB17A8E1B0E0EFE1F3E00C94B7176983C2
:100640007A838B839C832D833E834F835887B9E0C5
:10065000EB2EF12CEC0EFD1ECE010196B7010E948F
:1006600046068E010F5E1F4FCE010596B8010E940F
:1006700046062985223008F47EC03989323010F4CC
:10068000B8017CC08A859A8989278A87243011F02D
:10069000223031F4231709F06EC06CE870E06EC0B0
:1006A000343039F41D861E861F86188A1C861B86E8
:1006B00004C0323021F484E08987B7015FC02B8504
:1006C0003C858B899C89281B390B3C872B87ED84C3
:1006D000FE840F851889AD88BE88CF88D88CEA142F
:1006E000FB040C051D0540F4EE0CFF1C001F111F40
:1006F000215030403C872B8720E030E040E050E044
:1007000080E090E0A0E0B0E460E070E0EA14FB0478
:100710000C051D0540F0282B392B4A2B5B2BEA18C2
:10072000FB080C091D09B695A79597958795EE0CC2
:10073000FF1C001F111F6F5F7F4F6F31710531F775
:10074000DA01C9018F779070A070B0708034910584
:10075000A105B10561F427FD0AC0E114F10401050A
:10076000110529F0205C3F4F4F4F5F4F20782D87B8
:100770003E874F87588BBE01675F7F4FCB010E943A
:1007800071056896EAE00C94D317A8E1B0E0EBECB1
:10079000F3E00C94BB1769837A838B839C832D834E
:1007A0003E834F83588789E0E82EF12CEC0EFD1E26
:1007B000CE010196B7010E9446068E010F5E1F4FC3
:1007C000CE010596B8010E9446068985823040F028
:1007D0008989823028F0C701B8010E94BE0601C095
:1007E0008FEF6896E6E00C94D717A8E1B0E0EBEF46
:1007F000F3E00C94BB1769837A838B839C832D83EE
:100800003E834F83588789E0E82EF12CEC0EFD1EC5
:10081000CE010196B7010E9446068E010F5E1F4F62
:10082000CE010596B8010E9446068985823040F0C7
:100830008989823028F0C701B8010E94BE0601C034
:100840008FEF6896E6E00C94D717A8E1B0E0EBE2F2
:10085000F4E00C94BB1769837A838B839C832D838C
:100860003E834F83588789E0E82EF12CEC0EFD1E65
:10087000CE010196B7010E9446068E010F5E1F4F02
:10088000CE010596B8010E9446068985823040F067
:100890008989823028F0C701B8010E94BE0601C0D4
:1008A00081E06896E6E00C94D717ACE0B0E0EBE5A9
:1008B000F4E00C94BF1769837A838B839C83CE0109
:1008C0000196BE016B5F7F4F0E9446068D8182308C
:1008D00061F1823050F1843021F48E81882351F10E
:1008E0002EC02F81388537FD20C06E812F31310514
:1008F0001CF06623F9F023C08EE190E0821B930B7D
:1009000029853A854B855C8504C056954795379572
:1009100027958A95D2F76623B1F05095409530958A
:1009200021953F4F4F4F5F4F0EC020E030E040E039
:1009300050E009C02FEF3FEF4FEF5FE704C020E02A
:1009400030E040E050E8B901CA012C96E2E00C9496
:10095000DB17A8E0B0E0EFEAF4E00C94B7177B01F6
:100960008C01611571058105910519F482E0898377
:1009700060C083E089838EE1C82ED12CDC82CB82DB
:10098000ED82FE820F831887C801B7010E942205FD
:10099000FC013197F7FF3BC0222733272E1B3F0B6B
:1009A00057016801022E04C0D694C794B794A79447
:1009B0000A94D2F740E050E060E070E081E090E01F
:1009C000A0E0B0E004C0880F991FAA1FBB1F2A95A2
:1009D000D2F70197A109B1098E219F21A023B1234C
:1009E0000097A105B10521F041E050E060E070E022
:1009F0004A295B296C297D294D835E836F83788723
:100A00008EE190E08E1B9F0B9C838B8312C03097EE
:100A100081F00E2E04C0EE0CFF1C001F111F0A9463
:100A2000D2F7ED82FE820F831887CE1ADF0ADC82AE
:100A3000CB821A82CE0101960E9471052896EAE0C7
:100A40000C94D317EF92FF920F931F937B018C01AD
:100A500080E0E81680E0F80681E0080780E01807EB
:100A600088F48FEFE816F1040105110531F028F044
:100A700088E090E0A0E0B0E017C080E090E0A0E067
:100A8000B0E012C080E0E81680E0F80680E00807D9
:100A900081E0180728F088E190E0A0E0B0E004C011
:100AA00080E190E0A0E0B0E020E230E040E050E003
:100AB000281B390B4A0B5B0B04C016950795F7945E
:100AC000E7948A95D2F7F701EC56FF4F8081281BF7
:100AD000310941095109C9011F910F91FF90EF9010
:100AE0000895DF92EF92FF920F931F93FC01E48031
:100AF000F58006811781D1808081823048F480E0C2
:100B000090E0A0E1B0E0E82AF92A0A2B1B2BA5C04F
:100B1000843009F49FC0823021F4EE24FF24870141
:100B200005C0E114F1040105110519F4E0E0F0E05D
:100B300096C0628173819FEF623879070CF05BC0C9
:100B400022E83FEF261B370B2A3131052CF020E03D
:100B500030E040E050E02AC0B801A701022E04C0F6
:100B600076956795579547950A94D2F781E090E07E
:100B7000A0E0B0E004C0880F991FAA1FBB1F2A95F0
:100B8000D2F70197A109B1098E219F21A023B1239A
:100B90000097A105B10521F081E090E0A0E0B0E070
:100BA0009A01AB01282B392B4A2B5B2BDA01C901A7
:100BB0008F779070A070B07080349105A105B10559
:100BC00039F427FF09C0205C3F4F4F4F5F4F04C0EF
:100BD000215C3F4F4F4F5F4FE0E0F0E02030A0E05E
:100BE0003A07A0E04A07A0E45A0710F0E1E0F0E07D
:100BF00079018A0127C06038710564F5FB01E1586D
:100C0000FF4FD801C7018F779070A070B07080340B
:100C10009105A105B10539F4E7FE0DC080E490E02F
:100C2000A0E0B0E004C08FE390E0A0E0B0E0E80E08
:100C3000F91E0A1F1B1F17FF05C016950795F7948D
:100C4000E794319687E016950795F794E7948A958F
:100C5000D1F705C0EE24FF248701EFEFF0E06E2FFF
:100C6000679566276795902F9F77D794DD24D79453
:100C70008E2F8695492F462B582F5D29B701CA0123
:100C80001F910F91FF90EF90DF900895FC01DB0121
:100C9000408151812281622F6F7770E0221F2227CD
:100CA000221F9381892F880F822B282F30E0991FD4
:100CB0009927991F11969C93119721153105A9F534
:100CC000411551056105710511F482E037C082E8D4
:100CD0009FEF13969C938E9312979A01AB0167E056
:100CE000220F331F441F551F6A95D1F783E08C9361
:100CF0000DC0220F331F441F551F12968D919C91DA
:100D00001397019713969C938E931297203080E04F
:100D1000380780E0480780E4580758F314962D936D
:100D20003D934D935C93179708952F3F310579F4C8
:100D3000411551056105710519F484E08C930895FE
:100D400064FF03C081E08C9312C01C9210C02F5727
:100D5000304013963C932E93129783E08C9387E058
:100D6000440F551F661F771F8A95D1F7706414963C
:100D70004D935D936D937C93179708951F93DC01BA
:100D8000FB019C91923008F447C08081823008F4C6
:100D900043C0943051F411961C91843099F58181AF
:100DA000682F70E0611B71093FC0843021F09230E0
:100DB00031F48230B9F18181882389F12DC01196F7
:100DC0001C9111978230F1F081811817D9F4129695
:100DD0002D913C911397828193818217930794F010
:100DE00028173907BCF014968D919D910D90BC91F8
:100DF000A02D2481358146815781281739074A075C
:100E00005B0718F4112341F00AC082179307A40767
:100E1000B50740F4112319F061E070E005C06FEFF1
:100E20007FEF02C060E070E0CB011F910895DF9377
:100E3000CF93CDB7DEB72F970FB6F894DEBF0FBEB6
:100E4000CDBF1F860E94D0090E94610E80E090E015
:100E5000A0EAB1E48B879C87AD87BE876B857C85D4
:100E60008D859E8520E030E04AE755E40E941F0210
:100E7000DC01CB018F839887A987BA876F8178853A
:100E800089859A8520E030E040E85FE30E942504F0
:100E900088232CF481E090E09E838D833FC06F8196
:100EA000788589859A8520E03FEF4FE757E40E94D7
:100EB000C50318164CF56B857C858D859E8520E0D5
:100EC00030E040E251E40E941F02DC01CB01BC0192
:100ED000CD010E944900DC01CB019E838D830FC0B0
:100EE00080E991E09C838B838B819C810197F1F752
:100EF0009C838B838D819E8101979E838D838D81C1
:100F00009E81009769F714C06F81788589859A85DD
:100F10000E944900DC01CB019E838D838D819E81DF
:100F20009A83898389819A810197F1F79A838983CA
:100F300080E090E00E94C80E8F878F850E945E0D32
:100F4000FFCFDF93CF93CDB7DEB780E064E041E021
:100F50000E94F51380E065E041E00E94F51380E017
:100F600066E041E00E94F51380E067E041E00E9406
:100F7000F51381E061E041E00E94F51381E062E059
:100F800041E00E94F513CF91DF910895DF93CF9355
:100F9000CDB7DEB76F970FB6F894DEBF0FBECDBFEB
:100FA0008F8F8F8D9AE0692F0E948F178295807F97
:100FB0008E8F8F8D9AE0692F0E948F17892F8295CF
:100FC000807F8D8F81E062E041E00E94D81481E053
:100FD00061E040E00E94D81480E060EF4E8D0E94F6
:100FE000BB1580E090E0A0E8BFE3898F9A8FAB8FBC
:100FF000BC8F698D7A8D8B8D9C8D20E030E04AE727
:1010000055E40E941F02DC01CB018D8B9E8BAF8BC0
:10101000B88F6D897E898F89988D20E030E040E817
:101020005FE30E94250488232CF481E090E09C8BF0
:101030008B8B3FC06D897E898F89988D20E03FEF33
:101040004FE757E40E94C50318164CF5698D7A8D59
:101050008B8D9C8D20E030E040E251E40E941F0225
:10106000DC01CB01BC01CD010E944900DC01CB01B8
:101070009C8B8B8B0FC080E991E09A8B898B89893F
:101080009A890197F1F79A8B898B8B899C890197B3
:101090009C8B8B8B8B899C89009769F714C06D8919
:1010A0007E898F89988D0E944900DC01CB019C8B41
:1010B0008B8B8B899C89988B8F878F8598890197DB
:1010C000F1F7988B8F8781E062E040E00E94D814AE
:1010D00081E061E041E00E94D81480E060EF4D8D36
:1010E0000E94BB1580E090E0A0E8BFE38B879C875F
:1010F000AD87BE876B857C858D859E8520E030E041
:101100004AE755E40E941F02DC01CB018F839887D8
:10111000A987BA876F81788589859A8520E030E034
:1011200040E85FE30E94250488232CF481E090E0EE
:101130009E838D833FC06F81788589859A8520E065
:101140003FEF4FE757E40E94C50318164CF56B8537
:101150007C858D859E8520E030E040E251E40E9450
:101160001F02DC01CB01BC01CD010E944900DC0162
:10117000CB019E838D830FC080E991E09C838B839C
:101180008B819C810197F1F79C838B838D819E815C
:1011900001979E838D838D819E81009769F714C08E
:1011A0006F81788589859A850E944900DC01CB0191
:1011B0009E838D838D819E819A83898389819A8183
:1011C0000197F1F79A8389836F960FB6F894DEBF83
:1011D0000FBECDBFCF91DF910895DF93CF93CDB7F1
:1011E000DEB782E062E041E00E94F51382E067E052
:1011F00041E00E94F51383E063E041E00E94F513B3
:10120000CF91DF910895DF93CF9300D00F92CDB7A8
:10121000DEB789838981282F30E03B832A838A8146
:101220009B818130910579F02A813B812230310503
:1012300081F08A819B81009789F482E062E041E03D
:101240000E94D8140BC082E067E041E00E94D814ED
:1012500005C083E063E041E00E94D8140F900F9036
:101260000F90CF91DF910895DF93CF9300D00F922D
:10127000CDB7DEB789838981282F30E03B832A836D
:101280008A819B818130910579F02A813B812230CE
:10129000310581F08A819B81009789F482E062E0C8
:1012A00040E00E94D8140BC082E067E040E00E945A
:1012B000D81405C083E063E040E00E94D8140F908A
:1012C0000F900F90CF91DF910895DF93CF9300D0CF
:1012D0000F92CDB7DEB789838981282F30E03B8319
:1012E0002A838A819B818130910571F02A813B811B
:1012F0002230310571F08A819B81009771F482E080
:1013000062E00E942B1609C082E067E00E942B1663
:1013100004C083E063E00E942B160F900F900F90A3
:10132000CF91DF910895DF93CF9300D0CDB7DEB793
:101330001A82198219822CC08981882F90E0089620
:10134000880F991F880F991F880F991F0E94380DC9
:101350001A8218C08981482F50E08A81282F30E0F6
:10136000CA01880F991F880F991F880F991F820F34
:10137000931FFC01EC56FE4F80810E945E0D8A8116
:101380008F5F8A838A81883028F389818F5F898380
:101390008981883088F20F900F90CF91DF91089566
:1013A000DF93CF93CDB7DEB7E4970FB6F894DEBFE7
:1013B0000FBECDBF80E064E041E00E94F51380E005
:1013C00065E041E00E94F51380E066E041E00E94A4
:1013D000F51380E067E041E00E94F51381E061E0F1
:1013E00041E00E94F51381E062E041E00E94F513C4
:1013F00081E063E041E00E94F51381E062E040E0BB
:101400000E94D81480E090E0A0E7B1E489AB9AABE9
:10141000ABABBCAB69A97AA98BA99CA920E030E051
:101420004AE755E40E941F02DC01CB018DA79EA76D
:10143000AFA7B8AB6DA57EA58FA598A920E030E039
:1014400040E85FE30E94250488232CF481E090E0CB
:101450009CA78BA73FC06DA57EA58FA598A920E06E
:101460003FEF4FE757E40E94C50318164CF569A9F2
:101470007AA98BA99CA920E030E040E251E40E94C7
:101480001F02DC01CB01BC01CD010E944900DC013F
:10149000CB019CA78BA70FC080E991E09AA789A7F1
:1014A00089A59AA50197F1F79AA789A78BA59CA56D
:1014B00001979CA78BA78BA59CA5009769F714C0E3
:1014C0006DA57EA58FA598A90E944900DC01CB01DE
:1014D0009CA78BA78BA59CA598A78FA38FA198A548
:1014E0000197F1F798A78FA383E00E94380D80E061
:1014F00090E0A0EAB0E48BA39CA3ADA3BEA36BA134
:101500007CA18DA19EA120E030E04AE755E40E9435
:101510001F02DC01CB018F8F98A3A9A3BAA36F8D03
:1015200078A189A19AA120E030E040E85FE30E9421
:10153000250488232CF481E090E09E8F8D8F3FC09E
:101540006F8D78A189A19AA120E03FEF4FE757E482
:101550000E94C50318164CF56BA17CA18DA19EA11C
:1015600020E030E040E251E40E941F02DC01CB01A8
:10157000BC01CD010E944900DC01CB019E8F8D8F03
:101580000FC080E991E09C8F8B8F8B8D9C8D019794
:10159000F1F79C8F8B8F8D8D9E8D01979E8F8D8FF8
:1015A0008D8D9E8D009769F714C06F8D78A189A1EC
:1015B0009AA10E944900DC01CB019E8F8D8F8D8DF9
:1015C0009E8D9A8F898F898D9A8D0197F1F79A8FC9
:1015D000898F83E00E94380D80E090E0A8ECB2E4AF
:1015E0008D8B9E8BAF8BB88F6D897E898F89988DFF
:1015F0002BEA3AEA4AEA50E40E941F02DC01CB01DE
:10160000898B9A8BAB8BBC8B69897A898B899C89F6
:1016100020E030E040E85FE30E94250488231CF4CA
:1016200081E0888B91C069897A898B899C8920E0C7
:1016300030E04FE753E40E94C50318160CF07BC05E
:101640006D897E898F89988D20E030E04AE754E4E7
:101650000E941903DC01CB018C879D87AE87BF8771
:101660006C857D858E859F8520E030E04AE755E4D6
:101670000E941F02DC01CB0188879987AA87BB875C
:10168000688579858A859B8520E030E040E85FE3C6
:101690000E94250488232CF481E090E09F838E83B0
:1016A0003FC0688579858A859B8520E03FEF4FE7BD
:1016B00057E40E94C50318164CF56C857D858E8510
:1016C0009F8520E030E040E251E40E941F02DC01EF
:1016D000CB01BC01CD010E944900DC01CB019F83FD
:1016E0008E830FC080E991E09D838C838C819D81E6
:1016F0000197F1F79D838C838E819F8101979F8352
:101700008E838E819F81009769F724C068857985D3
:101710008A859B850E944900DC01CB019F838E83D3
:101720008E819F819B838A838A819B810197F1F7B8
:101730009B838A830FC069897A898B899C890E94DF
:101740004900DC01CB01888B8889898389818A954E
:10175000F1F7898383E00E94380D82E00E94380D02
:1017600088E20E94380D0E94930980E060E00E94A8
:10177000870D8CE00E94380DE4960FB6F894DEBF1A
:101780000FBECDBFCF91DF910895DF93CF93CDB73B
:10179000DEB7A6970FB6F894DEBF0FBECDBF81E0CF
:1017A00063E041E00E94D81480E090E0A0E8BFE34D
:1017B0008BA39CA3ADA3BEA36BA17CA18DA19EA175
:1017C0002BEA3AEA4AEA50E40E941F02DC01CB010C
:1017D0008F8F98A3A9A3BAA36F8D78A189A19AA18D
:1017E00020E030E040E85FE30E94250488231CF4F9
:1017F00081E08E8F91C06F8D78A189A19AA120E0A0
:1018000030E04FE753E40E94C50318160CF07BC08C
:101810006BA17CA18DA19EA120E030E04AE754E4B9
:101820000E941903DC01CB018A8F9B8FAC8FBD8F87
:101830006A8D7B8D8C8D9D8D20E030E04AE755E4EC
:101840000E941F02DC01CB018E8B9F8BA88FB98F6A
:101850006E897F89888D998D20E030E040E85FE3D4
:101860000E94250488232CF481E090E09D8B8C8BD2
:101870003FC06E897F89888D998D20E03FEF4FE7CB
:1018800057E40E94C50318164CF56A8D7B8D8C8D2C
:101890009D8D20E030E040E251E40E941F02DC0117
:1018A000CB01BC01CD010E944900DC01CB019D8B25
:1018B0008C8B0FC080E991E09B8B8A8B8A899B89F6
:1018C0000197F1F79B8B8A8B8C899D8901979D8B62
:1018D0008C8B8C899D89009769F724C06E897F89DC
:1018E000888D998D0E944900DC01CB019D8B8C8BEA
:1018F0008C899D89998B888B888999890197F1F7C3
:10190000998B888B0FC06F8D78A189A19AA10E94B5
:101910004900DC01CB018E8F8E8D8F878F858A9554
:10192000F1F78F8781E063E040E00E94D81480E007
:1019300090E0A0E0B0E48B879C87AD87BE876B8585
:101940007C858D859E8520E030E04AE755E40E9445
:101950001F02DC01CB018F839887A987BA876F812B
:10196000788589859A8520E030E040E85FE30E9431
:10197000250488232CF481E090E09E838D833FC072
:101980006F81788589859A8520E03FEF4FE757E49E
:101990000E94C50318164CF56B857C858D859E8548
:1019A00020E030E040E251E40E941F02DC01CB0164
:1019B000BC01CD010E944900DC01CB019E838D83D7
:1019C0000FC080E991E09C838B838B819C81019780
:1019D000F1F79C838B838D819E8101979E838D83FC
:1019E0008D819E81009769F714C06F817885898504
:1019F0009A850E944900DC01CB019E838D838D81F5
:101A00009E819A83898389819A810197F1F79A83CC
:101A10008983A6960FB6F894DEBF0FBECDBFCF91D7
:101A2000DF910895DF93CF9300D00F92CDB7DEB74B
:101A30008B838B818A838B818295807F898381E0F0
:101A400061E041E00E94D81480E060EF4A810E948A
:101A5000BB150E94C50B80E060EF49810E94BB1559
:101A60000E94C50B0F900F900F90CF91DF910895BA
:101A7000DF93CF9300D00F92CDB7DEB78B838B81EE
:101A80008A838B818295807F898381E061E040E059
:101A90000E94D81480E060EF4A810E94BB150E942A
:101AA000C50B80E060EF49810E94BB150E94C50B09
:101AB0000F900F900F90CF91DF910895DF93CF9308
:101AC0000F92CDB7DEB7898389810E94120D0F90E6
:101AD000CF91DF910895DF93CF9300D0CDB7DEB7DC
:101AE0009A8389830AC0E981FA8180810E945E0D10
:101AF00089819A8101969A838983E981FA8180811B
:101B0000882389F70F900F90CF91DF910895DF938D
:101B1000CF9300D000D0CDB7DEB789836A838981A7
:101B2000282F30E03C832B838B819C81009731F000
:101B30002B813C812130310531F009C08A818058E8
:101B40000E94380D04C08A8180540E94380D0F9085
:101B50000F900F900F90CF91DF910895DF93CF9367
:101B600000D0CDB7DEB79A83898389819A8128EE28
:101B700033E0B9010E949B17CB01805D0E945E0D8E
:101B800089819A8128EE33E0B9010E949B1724E6EF
:101B900030E0B9010E949B17CB01805D0E945E0D71
:101BA00089819A8128EE33E0B9010E949B1724E6CF
:101BB00030E0B9010E949B172AE030E0B9010E9491
:101BC0009B17CB01805D0E945E0D89819A8128EE72
:101BD00033E0B9010E949B1724E630E0B9010E946E
:101BE0009B172AE030E0B9010E949B17805D0E949C
:101BF0005E0D0F900F90CF91DF910895DF93CF93FB
:101C0000CDB7DEB72C970FB6F894DEBF0FBECDBFB1
:101C100069877A878B879C8718861F8280E090E08F
:101C2000A0E0B0E08B839C83AD83BE831A821982CF
:101C300069857A858B859C850E944900DC01CB01F2
:101C400098878F838F819885CC01A0E0B0E0BC019C
:101C5000CD010E94A9049B01AC0169857A858B8521
:101C60009C850E94C101DC01CB018B839C83AD83E9
:101C7000BE836B817C818D819E8120E030E048ECC9
:101C800052E40E941F02DC01CB01BC01CD010E9485
:101C90004900DC01CB019A8389838F8198850E945A
:101CA000AE0D8EE20E945E0D89819A810E94AE0D7A
:101CB0002C960FB6F894DEBF0FBECDBFCF91DF914B
:101CC0000895DF93CF93CDB7DEB70E94B211CF91C5
:101CD000DF910895DF93CF9300D000D00F92CDB75E
:101CE000DEB79C838B836D838B819C81892F9927A1
:101CF0008A838B81898380E060E00E94870D8A81DE
:101D0000882F90E00E94AE0D80E068E00E94870D71
:101D10008981882F90E00E94AE0D0E94F31181E02E
:101D200060E00E94870D80E690E00E946B0D8B8141
:101D30009C8180709770892F992780650E94591225
:101D400081E060E00E94870D86E690E00E946B0DC6
:101D500089810E943F1281E060E00E94870D8EE63B
:101D600090E00E946B0D8D810E943F1281E060E047
:101D70000E94870D88E790E00E946B0D0E942C1254
:101D80000F900F900F900F900F90CF91DF910895CB
:101D9000DF93CF9300D000D00F92CDB7DEB79D83F5
:101DA0008C838C819D81892F99278B838C818A8359
:101DB00019820E94F3118C819D8180709770892F08
:101DC000992780650E9459128A810E943F120E94C1
:101DD0000E128C819D8180709770892F9927806564
:101DE0000E9476120E94971289830E942C12898188
:101DF0000F900F900F900F900F90CF91DF9108955B
:101E0000DF93CF93CDB7DEB780E063E041E00E947F
:101E1000F513CF91DF910895DF93CF93CDB7DEB760
:101E200080E063E041E00E94D814CF91DF910895F3
:101E3000DF93CF93CDB7DEB780E063E040E00E9450
:101E4000D814CF91DF910895DF93CF93CDB7DEB74C
:101E500080E063E00E942B16CF91DF910895DF931D
:101E6000CF93CDB7DEB781E060E040E00E94F5138C
:101E700081E064E040E00E94F51383E062E040E02E
:101E80000E94F513CF91DF910895DF93CF9300D097
:101E900000D0CDB7DEB78A8319828A81282F30E03F
:101EA0003C832B838B819C8181309105A1F02B8118
:101EB0003C8122303105D1F08B819C81009701F566
:101EC00081E060E00E94A816813019F481E08983E6
:101ED00017C0198215C081E064E00E94A816813005
:101EE00019F481E089830CC019820AC083E062E0A2
:101EF0000E94A816813019F481E0898301C01982FB
:101F000089810F900F900F900F90CF91DF910895DE
:101F1000DF93CF93CDB7DEB7A1E4B0E0E1E4F0E02A
:101F2000808187608C93A1E4B0E0E1E4F0E08081FF
:101F300088608C93CF91DF910895DF93CF93CDB7D5
:101F4000DEB7E1E4F0E088E18083A1E4B0E0E1E421
:101F5000F0E08081877F8C93CF91DF910895DF93AC
:101F6000CF93CDB7DEB7A895CF91DF910895DF93DA
:101F7000CF9300D0CDB7DEB79A838983E0E4F0E059
:101F800089819A81892F99278083E9E2F0E089810C
:101F90008083AAE2B0E0EAE2F0E0808180618C9385
:101FA000AAE2B0E0EAE2F0E0808188608C93A0E4ED
:101FB000B0E0E0E4F0E08081866A8C93AAE2B0E0D1
:101FC000EAE2F0E0808180688C930F900F90CF91CF
:101FD000DF910895DF93CF930F92CDB7DEB789835A
:101FE000EBE2F0E08081829586958770882F90E003
:101FF000817090700097A1F3ECE2F0E0898180831A
:102000000F90CF91DF910895DF93CF9300D0CDB79C
:10201000DEB79A8389830AC0E981FA8180810E94B0
:10202000EA0F89819A8101969A838983E981FA81ED
:102030008081882389F70F900F90CF91DF910895C9
:10204000DF93CF930F92CDB7DEB7EBE2F0E0808164
:1020500088232CF4ECE2F0E08081898301C01982AE
:1020600089810F90CF91DF9108951F920F920FB643
:102070000F9211242F933F934F935F936F937F930E
:102080008F939F93AF93BF93EF93FF93DF93CF9380
:10209000CDB7DEB78091D501882F90E0ECE2F0E07B
:1020A0002081FC01E952FE4F20838091D501882FC9
:1020B00090E0FC01E952FE4F80818D3049F410928E
:1020C000D50181E08093D60181E00E94650908C0B6
:1020D0008091D5018F5F8093D50180E00E946509D2
:1020E000CF91DF91FF91EF91BF91AF919F918F9130
:1020F0007F916F915F914F913F912F910F900FBE04
:102100000F901F901895DF93CF93CDB7DEB7E3E51F
:10211000F0E0A3E5B0E08C918083CF91DF9108954A
:10212000DF93CF930F92CDB7DEB78983A3E5B0E0FD
:10213000E3E5F0E090818981892B8C930F90CF911A
:10214000DF910895DF93CF93CDB7DEB7A3E5B0E07D
:10215000E3E5F0E080818C7F8C93CF91DF9108954F
:10216000DF93CF930F92CDB7DEB78983E2E5F0E03E
:10217000898180830F90CF91DF910895DF93CF9372
:10218000CDB7DEB7E2E5F0E08081CF91DF91089531
:10219000DF93CF93CDB7DEB7A9E5B0E0E9E5F0E096
:1021A000808181608C93CF91DF910895DF93CF93ED
:1021B000CDB7DEB7A9E5B0E0E9E5F0E080818E7F3C
:1021C0008C93CF91DF910895DF93CF930F92CDB78A
:1021D000DEB78983ECE5F0E0898180830F90CF91B1
:1021E000DF910895DF93CF93CDB7DEB781E065E04F
:1021F00041E00E94F51381E064E041E00E94F513A4
:1022000081E067E041E00E94F51381E066E040E094
:102210000E94F51381E064E041E00E94D814ADE231
:10222000B0E0EDE2F0E0808180648C93ADE2B0E05C
:10223000EDE2F0E0808180618C93ADE2B0E0EDE210
:10224000F0E0808181608C93CF91DF910895DF93DE
:10225000CF93CDB7DEB781E065E040E00E94F51393
:1022600081E064E040E00E94F51381E067E040E037
:102270000E94F51381E066E041E00E94F513ADE2B3
:10228000B0E0EDE2F0E0808180648C93ADE2B0E0FC
:10229000EDE2F0E080818F7E8C93CF91DF91089505
:1022A000DF93CF9300D0CDB7DEB78A83EFE2F0E0C3
:1022B0008A818083EEE2F0E080818823DCF7EFE220
:1022C000F0E0808189830F900F90CF91DF91089586
:1022D000DF93CF930F92CDB7DEB78FEF8983EFE215
:1022E000F0E089818083EEE2F0E080818823DCF7F2
:1022F000EFE2F0E080810F90CF91DF910895DF93BE
:10230000CF930F92CDB7DEB78983EFE2F0E08981FA
:102310008083EEE2F0E080818823DCF7EFE2F0E0FA
:1023200080810F90CF91DF910895DF93CF93CDB748
:10233000DEB7EEE2F0E080818823DCF7EFE2F0E048
:102340008081CF91DF910895DF93CF930F92CDB726
:10235000DEB78983EFE2F0E0898180830F90CF912F
:10236000DF910895DF93CF93CDB7DEB7E0E2F0E0E1
:102370008CE08083A6E5B0E0E6E5F0E0808184644F
:102380008C9381E090E060E070E00E94870D83E82C
:1023900090E00E946B0DCF91DF910895DF93CF9372
:1023A0000F92CDB7DEB78983A2E2B0E0E2E2F0E0BF
:1023B000808181608C93A2E2B0E0E2E2F0E0808173
:1023C000282F8981882F90E0880F991F822B8C936A
:1023D000A6E5B0E0E6E5F0E0808184648C930F90A0
:1023E000CF91DF910895DF93CF930F92CDB7DEB7F2
:1023F000E6E5F0E080EA8083E6E5F0E0808188238E
:10240000DCF70E94AD12883011F0198202C081E021
:10241000898389810F90CF91DF910895DF93CF93C6
:102420000F92CDB7DEB7A6E5B0E0E6E5F0E080813B
:10243000806A8C93E6E5F0E080818823DCF70E94D7
:10244000AD12803111F0198202C081E08983898147
:102450000F90CF91DF910895DF93CF93CDB7DEB783
:10246000A6E5B0E0E6E5F0E0808180698C93E6E5E2
:10247000F0E080818823DCF7CF91DF910895DF932E
:10248000CF930F92CDB7DEB78983E3E2F0E0898185
:102490008083A6E5B0E0E6E5F0E0808180688C937B
:1024A000E6E5F0E080818823DCF70F90CF91DF91A3
:1024B0000895DF93CF9300D00F92CDB7DEB78A8314
:1024C00019828A81880F898389810E943F120E9424
:1024D000AD12883111F01B8202C081E08B838B81A9
:1024E0000F900F900F90CF91DF910895DF93CF93CE
:1024F00000D00F92CDB7DEB78A8319828A81882FE8
:1025000090E0880F991F8160898389810E943F1222
:102510000E94AD12803411F01B8202C081E08B83D7
:102520008B810F900F900F90CF91DF910895DF93E3
:10253000CF93CDB7DEB7A6E5B0E0E6E5F0E0808169
:1025400080688C93E6E5F0E080818823DCF7E3E2A5
:10255000F0E08081CF91DF910895DF93CF930F92C8
:10256000CDB7DEB7E1E2F0E08081887F89838981A1
:102570000F90CF91DF910895DF93CF93CDB7DEB762
:10258000AFE5B0E0EFE5F0E0808180688C93CF911B
:10259000DF910895DF93CF93CDB7DEB7AFE5B0E01D
:1025A000EFE5F0E080818F778C93CF91DF910895F4
:1025B000DF93CF9300D00F92CDB7DEB789838981A7
:1025C000282F30E03B832A838A819B8181309105CB
:1025D00089F02A813B8122303105A1F08A819B81DB
:1025E0000097B9F4ABE5B0E0EBE5F0E08081806402
:1025F0008C930FC0ABE5B0E0EBE5F0E08081806844
:102600008C9307C0ABE5B0E0EBE5F0E08081806241
:102610008C930F900F900F90CF91DF910895DF93DF
:10262000CF9300D00F92CDB7DEB789838981282F51
:1026300030E03B832A838A819B818130910589F038
:102640002A813B8122303105A1F08A819B8100974C
:10265000B9F4ABE5B0E0EBE5F0E080818F7B8C93E3
:102660000FC0ABE5B0E0EBE5F0E080818F778C93B5
:1026700007C0ABE5B0E0EBE5F0E080818F7D8C93A7
:102680000F900F900F90CF91DF910895DF93CF932C
:1026900000D000D0CDB7DEB789836A838981282F27
:1026A00030E03C832B838B819C818130910591F0BC
:1026B0002B813C8122303105E9F08B819C81009790
:1026C00071F5A5E5B0E0E5E5F0E090818A81892B20
:1026D0008C9325C0A5E5B0E0E5E5F0E08081282FEA
:1026E0008A81882F90E0880F991F880F991F822B6D
:1026F0008C9315C08A81823041F4A4E5B0E0E4E512
:10270000F0E080818F7B8C930AC08A81833039F41A
:10271000A4E5B0E0E4E5F0E0808180648C930F9064
:102720000F900F900F90CF91DF910895DF93CF938B
:1027300000D00F92CDB7DEB79A8389836B83ECE329
:10274000F0E08081882F90E0827090700097B9F758
:10275000EEE3F0E089818083EFE3F0E089819A8104
:10276000892F99278083EDE3F0E08B818083ACE3B0
:10277000B0E0ECE3F0E0808184608C93ACE3B0E007
:10278000ECE3F0E0808182608C930F900F900F90CB
:10279000CF91DF910895DF93CF9300D0CDB7DEB70F
:1027A0009A838983ECE3F0E08081882F90E0827047
:1027B00090700097B9F7EEE3F0E089818083EFE352
:1027C000F0E089819A81892F99278083ACE3B0E07A
:1027D000ECE3F0E0808181608C93EDE3F0E08081B8
:1027E0000F900F90CF91DF910895DF93CF9300D09A
:1027F00000D00F92CDB7DEB789836A834B8389817E
:10280000282F30E03D832C838C819D818130910580
:1028100009F443C02C813D81223031052CF48C8198
:102820009D81009771F0BCC02C813D812230310523
:1028300009F45FC08C819D818330910509F485C0C6
:10284000AFC08B818823A9F4AAE3B0E0EAE3F0E00B
:102850008081482F8A81282F30E081E090E0022E8D
:1028600002C0880F991F0A94E2F7809584238C9305
:1028700097C0AAE3B0E0EAE3F0E08081482F8A81C4
:10288000282F30E081E090E0022E02C0880F991FCF
:102890000A94E2F7842B8C9383C08B818823A9F45C
:1028A000A7E3B0E0E7E3F0E08081482F8A81282F9A
:1028B00030E081E090E0022E02C0880F991F0A9458
:1028C000E2F7809584238C936BC0A7E3B0E0E7E345
:1028D000F0E08081482F8A81282F30E081E090E06D
:1028E000022E02C0880F991F0A94E2F7842B8C9362
:1028F00057C08B818823A9F4A4E3B0E0E4E3F0E0BF
:102900008081482F8A81282F30E081E090E0022EDC
:1029100002C0880F991F0A94E2F7809584238C9354
:102920003FC0A4E3B0E0E4E3F0E08081482F8A8177
:10293000282F30E081E090E0022E02C0880F991F1E
:102940000A94E2F7842B8C932BC08B818823A9F403
:10295000A1E3B0E0E1E3F0E08081482F8A81282FF5
:1029600030E081E090E0022E02C0880F991F0A94A7
:10297000E2F7809584238C9313C0A1E3B0E0E1E3F8
:10298000F0E08081482F8A81282F30E081E090E0BC
:10299000022E02C0880F991F0A94E2F7842B8C93B1
:1029A0000F900F900F900F900F90CF91DF9108959F
:1029B000DF93CF9300D000D00F92CDB7DEB78983DD
:1029C0006A834B838981282F30E03D832C838C815F
:1029D0009D818130910509F443C02C813D812230D5
:1029E00031052CF48C819D81009771F0BCC02C8145
:1029F0003D812230310509F45FC08C819D81833097
:102A0000910509F485C0AFC08B818130A1F4ABE39F
:102A1000B0E0EBE3F0E08081482F8A81282F30E09E
:102A200081E090E0022E02C0880F991F0A94E2F71D
:102A3000842B8C9398C0ABE3B0E0EBE3F0E08081B3
:102A4000482F8A81282F30E081E090E0022E02C0DA
:102A5000880F991F0A94E2F7809584238C9383C092
:102A60008B818130A1F4A8E3B0E0E8E3F0E080815D
:102A7000482F8A81282F30E081E090E0022E02C0AA
:102A8000880F991F0A94E2F7842B8C936CC0A8E3FB
:102A9000B0E0E8E3F0E08081482F8A81282F30E021
:102AA00081E090E0022E02C0880F991F0A94E2F79D
:102AB000809584238C9357C08B818130A1F4A5E34A
:102AC000B0E0E5E3F0E08081482F8A81282F30E0F4
:102AD00081E090E0022E02C0880F991F0A94E2F76D
:102AE000842B8C9340C0A5E3B0E0E5E3F0E0808167
:102AF000482F8A81282F30E081E090E0022E02C02A
:102B0000880F991F0A94E2F7809584238C932BC039
:102B10008B818130A1F4A2E3B0E0E2E3F0E08081B8
:102B2000482F8A81282F30E081E090E0022E02C0F9
:102B3000880F991F0A94E2F7842B8C9314C0A2E3A8
:102B4000B0E0E2E3F0E08081482F8A81282F30E076
:102B500081E090E0022E02C0880F991F0A94E2F7EC
:102B6000809584238C930F900F900F900F900F906F
:102B7000CF91DF910895DF93CF9300D000D00F92D3
:102B8000CDB7DEB789836A834B838981282F30E0F4
:102B90003D832C838C819D818130910529F12C818D
:102BA0003D81223031052CF48C819D81009761F0AC
:102BB0004AC02C813D812230310531F18C819D81CB
:102BC0008330910589F13FC0ABE3B0E0EBE3F0E087
:102BD0008081982F8A818095292F28239B818A8143
:102BE0008923822B8C932FC0A8E3B0E0EBE3F0E0C5
:102BF0008081982F8A818095292F28239B818A8123
:102C00008923822B8C931FC0A5E3B0E0EBE3F0E0B7
:102C10008081982F8A818095292F28239B818A8102
:102C20008923822B8C930FC0A2E3B0E0EBE3F0E0AA
:102C30008081982F8A818095292F28239B818A81E2
:102C40008923822B8C930F900F900F900F900F90F1
:102C5000CF91DF910895DF93CF9300D000D0CDB70F
:102C6000DEB789836A838981282F30E03C832B83F8
:102C70008B819C818130910549F12B813C812230EF
:102C800031052CF48B819C81009761F05AC02B8117
:102C90003C812230310571F18B819C81833091051B
:102CA000E9F14FC0ABE3B0E0EBE3F0E08081482F07
:102CB0008A81282F30E081E090E0022E02C0880F48
:102CC000991F0A94E2F784278C933BC0A8E3B0E0F5
:102CD000E8E3F0E08081482F8A81282F30E081E00E
:102CE00090E0022E02C0880F991F0A94E2F7842711
:102CF0008C9327C0A5E3B0E0E5E3F0E08081482FA6
:102D00008A81282F30E081E090E0022E02C0880FF7
:102D1000991F0A94E2F784278C9313C0A2E3B0E0D2
:102D2000E2E3F0E08081482F8A81282F30E081E0C3
:102D300090E0022E02C0880F991F0A94E2F78427C0
:102D40008C930F900F900F900F90CF91DF9108957B
:102D5000DF93CF9300D000D00F92CDB7DEB78A8338
:102D60006B8319828A81282F30E03D832C834C812C
:102D70005D814130510579F18C819D8182309105D1
:102D800034F42C813D812115310569F06BC04C81F3
:102D90005D8142305105B9F18C819D81833091056F
:102DA00009F449C05FC0E9E3F0E08081282F30E0FA
:102DB0008B81882F90E0A90102C0559547958A958F
:102DC000E2F7CA0181709070882319F081E089834D
:102DD00049C0198247C0E6E3F0E08081282F30E047
:102DE0008B81882F90E0A90102C0559547958A955F
:102DF000E2F7CA0181709070882319F081E089831D
:102E000031C019822FC0E3E3F0E08081282F30E049
:102E10008B81882F90E0A90102C0559547958A952E
:102E2000E2F7CA0181709070882319F081E08983EC
:102E300019C0198217C0E0E3F0E08081282F30E04C
:102E40008B81882F90E0A90102C0559547958A95FE
:102E5000E2F7CA0181709070882319F081E08983BC
:102E600001C0198289810F900F900F900F900F90E1
:102E7000CF91DF910895DF93CF93CDB7DEB7A7E26F
:102E8000B0E0E7E2F0E0808180648C93E6E2F0E07D
:102E900087E88083CF91DF910895DF93CF9300D0AF
:102EA0000F92CDB7DEB78B83A7E2B0E0E7E2F0E0A8
:102EB0008081982F987F8B81892B8C93A6E2B0E03C
:102EC000E6E2F0E0808180648C93E6E2F0E08081CD
:102ED00082958F70882F90E0817090700097A9F391
:102EE000A6E2B0E0E6E2F0E0808180618C93E4E26B
:102EF000F0E08081282F30E0E5E2F0E08081882F4B
:102F000090E0982F8827822B932B9A83898389813D
:102F10009A810F900F900F90CF91DF910895991B98
:102F200079E004C0991F961708F0961B881F7A95C0
:102F3000C9F780950895AA1BBB1B51E107C0AA1FC2
:102F4000BB1FA617B70710F0A61BB70B881F991F4A
:102F50005A95A9F780959095BC01CD0108952F92BF
:102F60003F924F925F926F927F928F929F92AF9219
:102F7000BF92CF92DF92EF92FF920F931F93CF9366
:102F8000DF93CDB7DEB7CA1BDB0B0FB6F894DEBFFD
:102F90000FBECDBF09942A88398848885F846E8423
:102FA0007D848C849B84AA84B984C884DF80EE806D
:102FB000FD800C811B81AA81B981CE0FD11D0FB676
:102FC000F894DEBF0FBECDBFED010895F894FFCF9A
:102FD000537461727400534C412B572B410057724C
:102FE00069746520416464005772697465204461A6
:102FF00074610049324320496E697400000000008A
:10300000000000000001020203030303040404049F
:103010000404040405050505050505050505050564
:103020000505050506060606060606060606060644
:103030000606060606060606060606060606060630
:103040000606060607070707070707070707070714
:103050000707070707070707070707070707070700
:1030600007070707070707070707070707070707F0
:1030700007070707070707070707070707070707E0
:1030800007070707080808080808080808080808C4
:1030900008080808080808080808080808080808B0
:1030A00008080808080808080808080808080808A0
:1030B0000808080808080808080808080808080890
:1030C0000808080808080808080808080808080880
:1030D0000808080808080808080808080808080870
:1030E0000808080808080808080808080808080860
:1030F0000808080808080808080808080808080850
:10310000080808080A1F1F1F1F0E0400041F1111C2
:103110001111111F041F111111111F1F041F111173
:10312000111F1F1F041F11111F1F1F1F041F111F1D
:103130001F1F1F1F041F1F1F1F1F1F1F0000010134
:043140000505151557
:00000001FF
