:100000000C942A000C943F000C943F000C943F0089
:100010000C943F000C943F000C943F000C943F0064
:100020000C943F000C943F000C943F000C943F0054
:100030000C943F000C943F000C943F000C943F0044
:100040000C943F000C943F000C943F000C943F0034
:100050000C943F0011241FBECFE5D8E0DEBFCDBF1A
:1000600011E0A0E6B0E0E0E7F8E202C005900D92F2
:10007000A83AB107D9F70E940F070C9436140C94D4
:100080000000EF92FF920F931F937B018C0120E001
:1000900030E040E05FE40E94ED0388238CF0C8016B
:1000A000B70120E030E040E05FE40E94B9010E9427
:1000B0004D049B01AC01205030404040504806C0E8
:1000C000C801B7010E944D049B01AC01B901CA01EE
:1000D0001F910F91FF90EF900895A0E0B0E0E3E74B
:1000E000F0E00C94FF13DC012B01FA019C9192309B
:1000F00008F439C1EB018881823008F433C19430AF
:1001000069F4843009F02FC111969C91119789816F
:10011000981709F428C1A0E6B0E025C1843009F49D
:1001200021C18230A9F4923009F01DC19A01AD01BC
:1001300088E0EA010990AE01E90109929E0181502F
:10014000C1F7E201898111969C918923818308C1BD
:10015000923009F407C112962D903C901397EB0151
:100160008A819B811496AD90BD90CD90DC901797BD
:10017000EC80FD800E811F819101281B390BB90194
:1001800037FF04C066277727621B730B6032710547
:100190000CF061C0121613066CF537014801062EEB
:1001A00004C096948794779467940A94D2F721E0D8
:1001B00030E040E050E004C0220F331F441F551FC1
:1001C0006A95D2F721503040404050402E213F21C7
:1001D00040235123211531054105510521F021E02E
:1001E00030E040E050E079018A01E628F72808294C
:1001F00019293CC0232BD1F1260E371E35014601AB
:10020000062E04C096948794779467940A94D2F744
:1002100021E030E040E050E004C0220F331F441FD3
:10022000551F6A95D2F721503040404050402A2156
:100230003B214C215D21211531054105510521F05E
:1002400021E030E040E050E059016A01A628B728DB
:10025000C828D9280BC0821593052CF01C01AA24AC
:10026000BB24650103C0EE24FF24870111969C91F5
:10027000D20111968C91981709F445C0992339F051
:10028000A80197012A193B094C095D0906C0A6017E
:1002900095012E193F09400B510B57FD08C01182E3
:1002A0003382228224833583468357831DC081E0B5
:1002B00081833382228288279927DC01821B930B5A
:1002C000A40BB50B84839583A683B7830DC0220F3F
:1002D000331F441F551F24833583468357838281F0
:1002E000938101979383828324813581468157814D
:1002F000DA01C9010197A109B1098F5F9F4FAF4F83
:10030000BF4328F30BC0918333822282EA0CFB1C8B
:100310000C1D1D1DE482F5820683178383E0808314
:10032000248135814681578157FF1AC0C901AA2708
:1003300097FDA095BA2F81709070A070B0705695FF
:10034000479537952795822B932BA42BB52B848328
:100350009583A683B7838281938101969383828359
:10036000DF0101C0D201CD01CDB7DEB7E2E10C94CF
:100370001B14A0E2B0E0EFEBF1E00C940B146983E6
:100380007A838B839C832D833E834F835887E9E058
:10039000EE2EF12CEC0EFD1ECE010196B7010E944F
:1003A0003E068E010F5E1F4FCE010596B8010E94DA
:1003B0003E068A8991E089278A8BC701B801AE0180
:1003C000475E5F4F0E946D000E946905A096E6E0BF
:1003D0000C942714A0E2B0E0E0EFF1E00C940B14D1
:1003E00069837A838B839C832D833E834F835887D5
:1003F000F9E0EF2EF12CEC0EFD1ECE010196B701B7
:100400000E943E068E010F5E1F4FCE010596B80179
:100410000E943E06C701B801AE01475E5F4F0E94D1
:100420006D000E946905A096E6E00C942714A0E2F6
:10043000B0E0EDE1F2E00C94FF1369837A838B83E3
:100440009C832D833E834F835887CE010196BE0146
:10045000675F7F4F0E943E06CE010596BE016F5E2C
:100460007F4F0E943E069985923088F089898230BC
:10047000C8F0943019F4823051F404C0843029F467
:10048000923081F480E690E0C6C0923049F420E0DA
:100490009A858A89981321E02A87CE010996BBC0E4
:1004A000823049F420E09A858A89981321E02A8BCA
:1004B000CE014196B0C02D843E844F8458886D880B
:1004C0007E888F88988CEE24FF248701AA24BB2481
:1004D000650140E050E060E070E0E0E0F0E0C10184
:1004E00081709070892BE9F0E60CF71C081D191D2E
:1004F0009A01AB012A0D3B1D4C1D5D1D80E090E073
:10050000A0E0B0E0E614F7040805190520F481E046
:1005100090E0A0E0B0E0BA01A901480F591F6A1F9E
:100520007B1FAA0CBB1CCC1CDD1C97FE08C081E005
:1005300090E0A0E0B0E0A82AB92ACA2ADB2A3196C6
:10054000E032F10549F0660C771C881C991C569422
:10055000479437942794C3CFFA85EA892B893C893D
:100560008B859C85280F391F2E5F3F4F17C0CA010E
:1005700081709070892B61F016950795F794E79438
:1005800080E090E0A0E0B0E8E82AF92A0A2B1B2BD3
:1005900076956795579547952F5F3F4F77FDE7CF46
:1005A0000CC0440F551F661F771F17FD4160EE0CEE
:1005B000FF1C001F111F21503040403090E05907B0
:1005C00090E0690790E4790760F32B8F3C8FDB01A3
:1005D000CA018F779070A070B07080349105A1052A
:1005E000B10561F447FD0AC0E114F10401051105EC
:1005F00029F0405C5F4F6F4F7F4F40781A8EFE1797
:1006000011F081E08A8F4D8F5E8F6F8F78A383E02A
:10061000898FCE0149960E946905A096E2E10C946B
:100620001B14A8E1B0E0E7E1F3E00C940714698340
:100630007A838B839C832D833E834F835887B9E0D5
:10064000EB2EF12CEC0EFD1ECE010196B7010E949F
:100650003E068E010F5E1F4FCE010596B8010E9427
:100660003E062985223008F47EC03989323010F4E4
:10067000B8017CC08A859A8989278A87243011F03D
:10068000223031F4231709F06EC060E670E06EC0CE
:10069000343039F41D861E861F86188A1C861B86F8
:1006A00004C0323021F484E08987B7015FC02B8514
:1006B0003C858B899C89281B390B3C872B87ED84D3
:1006C000FE840F851889AD88BE88CF88D88CEA143F
:1006D000FB040C051D0540F4EE0CFF1C001F111F50
:1006E000215030403C872B8720E030E040E050E054
:1006F00080E090E0A0E0B0E460E070E0EA14FB0489
:100700000C051D0540F0282B392B4A2B5B2BEA18D2
:10071000FB080C091D09B695A79597958795EE0CD2
:10072000FF1C001F111F6F5F7F4F6F31710531F785
:10073000DA01C9018F779070A070B0708034910594
:10074000A105B10561F427FD0AC0E114F10401051A
:10075000110529F0205C3F4F4F4F5F4F20782D87C8
:100760003E874F87588BBE01675F7F4FCB010E944A
:1007700069056896EAE00C942314A8E1B0E0E3EC84
:10078000F3E00C940B1469837A838B839C832D8311
:100790003E834F83588789E0E82EF12CEC0EFD1E36
:1007A000CE010196B7010E943E068E010F5E1F4FDB
:1007B000CE010596B8010E943E068985823040F040
:1007C0008989823028F0C701B8010E94B60601C0AD
:1007D0008FEF6896E6E00C942714A8E1B0E0E3EF11
:1007E000F3E00C940B1469837A838B839C832D83B1
:1007F0003E834F83588789E0E82EF12CEC0EFD1ED6
:10080000CE010196B7010E943E068E010F5E1F4F7A
:10081000CE010596B8010E943E068985823040F0DF
:100820008989823028F0C701B8010E94B60601C04C
:100830008FEF6896E6E00C942714A8E1B0E0E3E2BD
:10084000F4E00C940B1469837A838B839C832D834F
:100850003E834F83588789E0E82EF12CEC0EFD1E75
:10086000CE010196B7010E943E068E010F5E1F4F1A
:10087000CE010596B8010E943E068985823040F07F
:100880008989823028F0C701B8010E94B60601C0EC
:1008900081E06896E6E00C942714ACE0B0E0E3E574
:1008A000F4E00C940F1469837A838B839C83CE01CC
:1008B0000196BE016B5F7F4F0E943E068D818230A4
:1008C00061F1823050F1843021F48E81882351F11E
:1008D0002EC02F81388537FD20C06E812F31310524
:1008E0001CF06623F9F023C08EE190E0821B930B8D
:1008F00029853A854B855C8504C056954795379583
:1009000027958A95D2F76623B1F05095409530959A
:1009100021953F4F4F4F5F4F0EC020E030E040E049
:1009200050E009C02FEF3FEF4FEF5FE704C020E03A
:1009300030E040E050E8B901CA012C96E2E00C94A6
:100940002B14A8E0B0E0E7EAF4E00C9407147B0174
:100950008C01611571058105910519F482E0898387
:1009600060C083E089838EE1C82ED12CDC82CB82EB
:10097000ED82FE820F831887C801B7010E941A0515
:10098000FC013197F7FF3BC0222733272E1B3F0B7B
:1009900057016801022E04C0D694C794B794A79457
:1009A0000A94D2F740E050E060E070E081E090E02F
:1009B000A0E0B0E004C0880F991FAA1FBB1F2A95B2
:1009C000D2F70197A109B1098E219F21A023B1235C
:1009D0000097A105B10521F041E050E060E070E032
:1009E0004A295B296C297D294D835E836F83788733
:1009F0008EE190E08E1B9F0B9C838B8312C03097FF
:100A000081F00E2E04C0EE0CFF1C001F111F0A9473
:100A1000D2F7ED82FE820F831887CE1ADF0ADC82BE
:100A2000CB821A82CE0101960E9469052896EAE0DF
:100A30000C942314EF92FF920F931F937B018C0170
:100A400080E0E81680E0F80681E0080780E01807FB
:100A500088F48FEFE816F1040105110531F028F054
:100A600088E090E0A0E0B0E017C080E090E0A0E077
:100A7000B0E012C080E0E81680E0F80680E00807E9
:100A800081E0180728F088E190E0A0E0B0E004C021
:100A900080E190E0A0E0B0E020E230E040E050E013
:100AA000281B390B4A0B5B0B04C016950795F7946E
:100AB000E7948A95D2F7F701E859FF4F8081281B08
:100AC000310941095109C9011F910F91FF90EF9020
:100AD0000895DF92EF92FF920F931F93FC01E48041
:100AE000F58006811781D1808081823048F480E0D2
:100AF00090E0A0E1B0E0E82AF92A0A2B1B2BA5C060
:100B0000843009F49FC0823021F4EE24FF24870151
:100B100005C0E114F1040105110519F4E0E0F0E06D
:100B200096C0628173819FEF623879070CF05BC0D9
:100B300022E83FEF261B370B2A3131052CF020E04D
:100B400030E040E050E02AC0B801A701022E04C006
:100B500076956795579547950A94D2F781E090E08E
:100B6000A0E0B0E004C0880F991FAA1FBB1F2A9500
:100B7000D2F70197A109B1098E219F21A023B123AA
:100B80000097A105B10521F081E090E0A0E0B0E080
:100B90009A01AB01282B392B4A2B5B2BDA01C901B7
:100BA0008F779070A070B07080349105A105B10569
:100BB00039F427FF09C0205C3F4F4F4F5F4F04C0FF
:100BC000215C3F4F4F4F5F4FE0E0F0E02030A0E06E
:100BD0003A07A0E04A07A0E45A0710F0E1E0F0E08D
:100BE00079018A0127C06038710564F5FB01E1587D
:100BF000FF4FD801C7018F779070A070B07080341C
:100C00009105A105B10539F4E7FE0DC080E490E03F
:100C1000A0E0B0E004C08FE390E0A0E0B0E0E80E18
:100C2000F91E0A1F1B1F17FF05C016950795F7949D
:100C3000E794319687E016950795F794E7948A959F
:100C4000D1F705C0EE24FF248701EFEFF0E06E2F0F
:100C5000679566276795902F9F77D794DD24D79463
:100C60008E2F8695492F462B582F5D29B701CA0133
:100C70001F910F91FF90EF90DF900895FC01DB0131
:100C8000408151812281622F6F7770E0221F2227DD
:100C9000221F9381892F880F822B282F30E0991FE4
:100CA0009927991F11969C93119721153105A9F544
:100CB000411551056105710511F482E037C082E8E4
:100CC0009FEF13969C938E9312979A01AB0167E066
:100CD000220F331F441F551F6A95D1F783E08C9371
:100CE0000DC0220F331F441F551F12968D919C91EA
:100CF0001397019713969C938E931297203080E060
:100D0000380780E0480780E4580758F314962D937D
:100D10003D934D935C93179708952F3F310579F4D8
:100D2000411551056105710519F484E08C9308950E
:100D300064FF03C081E08C9312C01C9210C02F5737
:100D4000304013963C932E93129783E08C9387E068
:100D5000440F551F661F771F8A95D1F7706414964C
:100D60004D935D936D937C93179708951F93DC01CA
:100D7000FB019C91923008F447C08081823008F4D6
:100D800043C0943051F411961C91843099F58181BF
:100D9000682F70E0611B71093FC0843021F09230F0
:100DA00031F48230B9F18181882389F12DC0119607
:100DB0001C9111978230F1F081811817D9F41296A5
:100DC0002D913C911397828193818217930794F020
:100DD00028173907BCF014968D919D910D90BC9108
:100DE000A02D2481358146815781281739074A076C
:100DF0005B0718F4112341F00AC082179307A40778
:100E0000B50740F4112319F061E070E005C06FEF01
:100E10007FEF02C060E070E0CB011F910895DF9387
:100E2000CF93CDB7DEB76D970FB6F894DEBF0FBE88
:100E3000CDBF1D8EE3E5F0E089E6808381E063E0CD
:100E400041E00E9445101D8E79C0ECE5F0E08D8DEB
:100E5000808380E090E0A0E2B1E4898F9A8FAB8F2D
:100E6000BC8F698D7A8D8B8D9C8D20E030E04AE7B8
:100E700055E40E941702DC01CB018D8B9E8BAF8B5A
:100E8000B88F6D897E898F89988D20E030E040E8A9
:100E90005FE30E941D0488232CF481E090E09C8B8A
:100EA0008B8B3FC06D897E898F89988D20E03FEFC5
:100EB0004FE757E40E94BD0318164CF5698D7A8DF3
:100EC0008B8D9C8D20E030E040E251E40E941702BF
:100ED000DC01CB01BC01CD010E944100DC01CB0152
:100EE0009C8B8B8B0FC080E991E09A8B898B8989D1
:100EF0009A890197F1F79A8B898B8B899C89019745
:100F00009C8B8B8B8B899C89009769F714C06D89AA
:100F10007E898F89988D0E944100DC01CB019C8BDA
:100F20008B8B8B899C89988B8F878F85988901976C
:100F3000F1F7988B8F878D8D8F5F8D8F8D8D8F3F84
:100F400009F083CF8FEF8D8F79C0ECE5F0E08D8DC8
:100F5000808380E090E0A0E2B1E48B879C87AD873E
:100F6000BE876B857C858D859E8520E030E04AE7D5
:100F700055E40E941702DC01CB018F839887A98773
:100F8000BA876F81788589859A8520E030E040E8CE
:100F90005FE30E941D0488232CF481E090E09E838F
:100FA0008D833FC06F81788589859A8520E03FEFEA
:100FB0004FE757E40E94BD0318164CF56B857C85FE
:100FC0008D859E8520E030E040E251E40E941702CA
:100FD000DC01CB01BC01CD010E944100DC01CB0151
:100FE0009E838D830FC080E991E09C838B838B81EE
:100FF0009C810197F1F79C838B838D819E81019762
:101000009E838D838D819E81009769F714C06F81C7
:10101000788589859A850E944100DC01CB019E83F9
:101020008D838D819E819A83898389819A8101979D
:10103000F1F79A8389838D8D81508D8F8D8D8230CC
:1010400008F083CF00CFDF93CF93CDB7DEB780E03A
:1010500064E041E00E94451080E065E041E00E94CC
:10106000451080E066E041E00E94451080E067E0C6
:1010700041E00E94451081E061E041E00E9445109E
:1010800081E062E041E00E944510CF91DF91089538
:10109000DF93CF93CDB7DEB76F970FB6F894DEBF6F
:1010A0000FBECDBF8F8F8F8D9AE0692F0E94DF1307
:1010B0008295807F8E8F8F8D9AE0692F0E94DF133B
:1010C000892F8295807F8D8F81E062E041E00E94D0
:1010D000281181E061E040E00E94281180E060EF8B
:1010E0004E8D0E940B1280E090E0A0E8BFE3898F54
:1010F0009A8FAB8FBC8F698D7A8D8B8D9C8D20E004
:1011000030E04AE755E40E941702DC01CB018D8BE9
:101110009E8BAF8BB88F6D897E898F89988D20E0EB
:1011200030E040E85FE30E941D0488232CF481E056
:1011300090E09C8B8B8B3FC06D897E898F89988DC9
:1011400020E03FEF4FE757E40E94BD0318164CF52F
:10115000698D7A8D8B8D9C8D20E030E040E251E4EA
:101160000E941702DC01CB01BC01CD010E944100AD
:10117000DC01CB019C8B8B8B0FC080E991E09A8BBB
:10118000898B89899A890197F1F79A8B898B8B8949
:101190009C8901979C8B8B8B8B899C89009769F725
:1011A00014C06D897E898F89988D0E944100DC0171
:1011B000CB019C8B8B8B8B899C89988B8F878F85A0
:1011C00098890197F1F7988B8F8781E062E040E082
:1011D0000E94281181E061E041E00E94281180E036
:1011E00060EF4D8D0E940B1280E090E0A0E8BFE31D
:1011F0008B879C87AD87BE876B857C858D859E851B
:1012000020E030E04AE755E40E941702DC01CB0100
:101210008F839887A987BA876F81788589859A8512
:1012200020E030E040E85FE30E941D0488232CF4B6
:1012300081E090E09E838D833FC06F8178858985B2
:101240009A8520E03FEF4FE757E40E94BD03181650
:101250004CF56B857C858D859E8520E030E040E2F5
:1012600051E40E941702DC01CB01BC01CD010E94B8
:101270004100DC01CB019E838D830FC080E991E0AA
:101280009C838B838B819C810197F1F79C838B835B
:101290008D819E8101979E838D838D819E81009794
:1012A00069F714C06F81788589859A850E9441000D
:1012B000DC01CB019E838D838D819E819A838983FE
:1012C00089819A810197F1F79A8389836F960FB686
:1012D000F894DEBF0FBECDBFCF91DF910895DF93AD
:1012E000CF93CDB7DEB782E062E041E00E944510C7
:1012F00082E067E041E00E94451083E063E041E066
:101300000E944510CF91DF910895DF93CF9300D0D5
:101310000F92CDB7DEB789838981282F30E03B83D8
:101320002A838A819B818130910579F02A813B81D2
:101330002230310581F08A819B81009789F482E017
:1013400062E041E00E9428110BC082E067E041E0CA
:101350000E94281105C083E063E041E00E9428114B
:101360000F900F900F90CF91DF910895DF93CF935F
:1013700000D00F92CDB7DEB789838981282F30E066
:101380003B832A838A819B818130910579F02A8170
:101390003B812230310581F08A819B81009789F45D
:1013A00082E062E040E00E9428110BC082E067E02A
:1013B00040E00E94281105C083E063E040E00E9405
:1013C00028110F900F900F90CF91DF910895DF9328
:1013D000CF9300D00F92CDB7DEB789838981282FB4
:1013E00030E03B832A838A819B818130910571F0B3
:1013F0002A813B812230310571F08A819B810097DF
:1014000071F482E062E00E947B1209C082E067E032
:101410000E947B1204C083E063E00E947B120F9065
:101420000F900F90CF91DF910895DF93CF9300D06D
:10143000CDB7DEB71A82198219822CC08981882F14
:1014400090E00896880F991F880F991F880F991FA1
:101450000E94BA0D1A8218C08981482F50E08A81F3
:10146000282F30E0CA01880F991F880F991F880F15
:10147000991F820F931FFC01E859FE4F80810E9443
:10148000E00D8A818F5F8A838A81883028F3898181
:101490008F5F89838981883088F20F900F90CF9178
:1014A000DF910895DF93CF93CDB7DEB7E4970FB602
:1014B000F894DEBF0FBECDBF80E064E041E00E9443
:1014C000451080E065E041E00E94451080E066E064
:1014D00041E00E94451080E067E041E00E94451035
:1014E00081E061E041E00E94451081E062E041E07E
:1014F0000E94451081E063E041E00E94451081E0D8
:1015000062E040E00E94281180E090E0A0E7B1E4B2
:1015100089AB9AABABABBCAB69A97AA98BA99CA9E7
:1015200020E030E04AE755E40E941702DC01CB01DD
:101530008DA79EA7AFA7B8AB6DA57EA58FA598A9CF
:1015400020E030E040E85FE30E941D0488232CF493
:1015500081E090E09CA78BA73FC06DA57EA58FA5DD
:1015600098A920E03FEF4FE757E40E94BD0318160B
:101570004CF569A97AA98BA99CA920E030E040E24A
:1015800051E40E941702DC01CB01BC01CD010E9495
:101590004100DC01CB019CA78BA70FC080E991E043
:1015A0009AA789A789A59AA50197F1F79AA789A76C
:1015B0008BA59CA501979CA78BA78BA59CA50097A5
:1015C00069F714C06DA57EA58FA598A90E9441005A
:1015D000DC01CB019CA78BA78BA59CA598A78FA30B
:1015E0008FA198A50197F1F798A78FA383E00E9498
:1015F000BA0D80E090E0A0EAB0E48BA39CA3ADA379
:10160000BEA36BA17CA18DA19EA120E030E04AE7A2
:1016100055E40E941702DC01CB018F8F98A3A9A388
:10162000BAA36F8D78A189A19AA120E030E040E8AB
:101630005FE30E941D0488232CF481E090E09E8FDC
:101640008D8F3FC06F8D78A189A19AA120E03FEFD7
:101650004FE757E40E94BD0318164CF56BA17CA11F
:101660008DA19EA120E030E040E251E40E941702EB
:10167000DC01CB01BC01CD010E944100DC01CB01AA
:101680009E8F8D8F0FC080E991E09C8F8B8F8B8D0B
:101690009C8D0197F1F79C8F8B8F8D8D9E8D01977F
:1016A0009E8F8D8F8D8D9E8D009769F714C06F8DE5
:1016B00078A189A19AA10E944100DC01CB019E8FF3
:1016C0008D8F8D8D9E8D9A8F898F898D9A8D0197A3
:1016D000F1F79A8F898F83E00E94BA0D80E090E045
:1016E000A8ECB2E48D8B9E8BAF8BB88F6D897E8911
:1016F0008F89988D2BEA3AEA4AEA50E40E94170251
:10170000DC01CB01898B9A8BAB8BBC8B69897A8985
:101710008B899C8920E030E040E85FE30E941D0453
:1017200088231CF481E0888B91C069897A898B8930
:101730009C8920E030E04FE753E40E94BD03181677
:101740000CF07BC06D897E898F89988D20E030E018
:101750004AE754E40E941103DC01CB018C879D878A
:10176000AE87BF876C857D858E859F8520E030E0C4
:101770004AE755E40E941702DC01CB01888799876C
:10178000AA87BB87688579858A859B8520E030E0BC
:1017900040E85FE30E941D0488232CF481E090E080
:1017A0009F838E833FC0688579858A859B8520E0ED
:1017B0003FEF4FE757E40E94BD0318164CF56C85C8
:1017C0007D858E859F8520E030E040E251E40E94D7
:1017D0001702DC01CB01BC01CD010E944100DC01FC
:1017E000CB019F838E830FC080E991E09D838C8322
:1017F0008C819D810197F1F79D838C838E819F81E0
:1018000001979F838E838E819F81009769F724C003
:10181000688579858A859B850E944100DC01CB0122
:101820009F838E838E819F819B838A838A819B8104
:101830000197F1F79B838A830FC069897A898B8925
:101840009C890E944100DC01CB01888B88898983B7
:1018500089818A95F1F7898383E00E94BA0D82E03D
:101860000E94BA0D88E20E94BA0D0E94150A80E01B
:1018700060E00E94090E8CE00E94BA0DE4960FB65B
:10188000F894DEBF0FBECDBFCF91DF910895DF93F7
:10189000CF93CDB7DEB7A6970FB6F894DEBF0FBED5
:1018A000CDBF81E063E041E00E94281180E090E03C
:1018B000A0E8BFE38BA39CA3ADA3BEA36BA17CA1B7
:1018C0008DA19EA12BEA3AEA4AEA50E40E9417024F
:1018D000DC01CB018F8F98A3A9A3BAA36F8D78A148
:1018E00089A19AA120E030E040E85FE30E941D0456
:1018F00088231CF481E08E8F91C06F8D78A189A11F
:101900009AA120E030E04FE753E40E94BD0318168F
:101910000CF07BC06BA17CA18DA19EA120E030E0EA
:101920004AE754E40E941103DC01CB018A8F9B8FAC
:10193000AC8FBD8F6A8D7B8D8C8D9D8D20E030E0CE
:101940004AE755E40E941702DC01CB018E8B9F8B86
:10195000A88FB98F6E897F89888D998D20E030E0BE
:1019600040E85FE30E941D0488232CF481E090E0AE
:101970009D8B8C8B3FC06E897F89888D998D20E0EF
:101980003FEF4FE757E40E94BD0318164CF56A8DF0
:101990007B8D8C8D9D8D20E030E040E251E40E94F3
:1019A0001702DC01CB01BC01CD010E944100DC012A
:1019B000CB019D8B8C8B0FC080E991E09B8B8A8B38
:1019C0008A899B890197F1F79B8B8A8B8C899D89EA
:1019D00001979D8B8C8B8C899D89009769F724C01A
:1019E0006E897F89888D998D0E944100DC01CB0131
:1019F0009D8B8C8B8C899D89998B888B8889998903
:101A00000197F1F7998B888B0FC06F8D78A189A111
:101A10009AA10E944100DC01CB018E8F8E8D8F87B1
:101A20008F858A95F1F78F8781E063E040E00E941F
:101A3000281180E090E0A0E0B0E48B879C87AD8720
:101A4000BE876B857C858D859E8520E030E04AE7EA
:101A500055E40E941702DC01CB018F839887A98788
:101A6000BA876F81788589859A8520E030E040E8E3
:101A70005FE30E941D0488232CF481E090E09E83A4
:101A80008D833FC06F81788589859A8520E03FEFFF
:101A90004FE757E40E94BD0318164CF56B857C8513
:101AA0008D859E8520E030E040E251E40E941702DF
:101AB000DC01CB01BC01CD010E944100DC01CB0166
:101AC0009E838D830FC080E991E09C838B838B8103
:101AD0009C810197F1F79C838B838D819E81019777
:101AE0009E838D838D819E81009769F714C06F81DD
:101AF000788589859A850E944100DC01CB019E830F
:101B00008D838D819E819A83898389819A810197B2
:101B1000F1F79A838983A6960FB6F894DEBF0FBEBD
:101B2000CDBFCF91DF910895DF93CF9300D00F9277
:101B3000CDB7DEB78B838B818A838B818295807F43
:101B4000898381E061E041E00E94281180E060EF3C
:101B50004A810E940B120E94470C80E060EF49818D
:101B60000E940B120E94470C0F900F900F90CF9184
:101B7000DF910895DF93CF9300D00F92CDB7DEB7FA
:101B80008B838B818A838B818295807F898381E09F
:101B900061E040E00E94281180E060EF4A810E94ED
:101BA0000B120E94470C80E060EF49810E940B12EB
:101BB0000E94470C0F900F900F90CF91DF910895E6
:101BC000DF93CF930F92CDB7DEB7898389810E94CF
:101BD000940D0F90CF91DF910895DF93CF9300D0B4
:101BE000CDB7DEB79A8389830AC0E981FA81808103
:101BF0000E94E00D89819A8101969A838983E98107
:101C0000FA818081882389F70F900F90CF91DF911F
:101C10000895DF93CF9300D000D0CDB7DEB789838E
:101C20006A838981282F30E03C832B838B819C81C0
:101C3000009731F02B813C812130310531F009C012
:101C40008A8180580E94BA0D04C08A8180540E9403
:101C5000BA0D0F900F900F900F90CF91DF910895D4
:101C6000DF93CF9300D0CDB7DEB79A838983898184
:101C70009A8128EE33E0B9010E94EB13CB01805D1D
:101C80000E94E00D89819A8128EE33E0B9010E941B
:101C9000EB1324E630E0B9010E94EB13CB01805D29
:101CA0000E94E00D89819A8128EE33E0B9010E94FB
:101CB000EB1324E630E0B9010E94EB132AE030E098
:101CC000B9010E94EB13CB01805D0E94E00D898178
:101CD0009A8128EE33E0B9010E94EB1324E630E04C
:101CE000B9010E94EB132AE030E0B9010E94EB1326
:101CF000805D0E94E00D0F900F90CF91DF910895CD
:101D0000DF93CF93CDB7DEB72C970FB6F894DEBF35
:101D10000FBECDBF69877A878B879C8718861F8205
:101D200080E090E0A0E0B0E08B839C83AD83BE8335
:101D30001A82198269857A858B859C850E9441006B
:101D4000DC01CB0198878F838F819885CC01A0E03F
:101D5000B0E0BC01CD010E94A1049B01AC016985EA
:101D60007A858B859C850E94B901DC01CB018B8330
:101D70009C83AD83BE836B817C818D819E8120E0BD
:101D800030E048EC52E40E941702DC01CB01BC01B8
:101D9000CD010E944100DC01CB019A8389838F81B0
:101DA00098850E94300E8EE20E94E00D89819A8112
:101DB0000E94300E2C960FB6F894DEBF0FBECDBF3A
:101DC000CF91DF910895DF93CF93CDB7DEB780E059
:101DD00063E041E00E944510CF91DF910895DF93C9
:101DE000CF93CDB7DEB780E063E041E00E942811D9
:101DF000CF91DF910895DF93CF93CDB7DEB780E029
:101E000063E040E00E942811CF91DF910895DF93B5
:101E1000CF93CDB7DEB780E063E00E947B12CF9115
:101E2000DF910895DF93CF93CDB7DEB781E060E017
:101E300040E00E94451081E064E040E00E944510CF
:101E400083E062E040E00E944510CF91DF91089569
:101E5000DF93CF9300D000D0CDB7DEB78A8319824D
:101E60008A81282F30E03C832B838B819C818130B9
:101E70009105A1F02B813C8122303105D1F08B817D
:101E80009C81009701F581E060E00E94F8128130AA
:101E900019F481E0898317C0198215C081E064E0DC
:101EA0000E94F812813019F481E089830CC01982F4
:101EB0000AC083E062E00E94F812813019F481E0E8
:101EC000898301C0198289810F900F900F900F9024
:101ED000CF91DF910895DF93CF93CDB7DEB7AFE514
:101EE000B0E0EFE5F0E0808180688C93CF91DF91E6
:101EF0000895DF93CF93CDB7DEB7AFE5B0E0EFE560
:101F0000F0E080818F778C93CF91DF910895DF93FC
:101F1000CF9300D00F92CDB7DEB789838981282F68
:101F200030E03B832A838A819B818130910589F04F
:101F30002A813B8122303105A1F08A819B81009763
:101F4000B9F4ABE5B0E0EBE5F0E0808180648C9320
:101F50000FC0ABE5B0E0EBE5F0E0808180688C93EA
:101F600007C0ABE5B0E0EBE5F0E0808180628C93E8
:101F70000F900F900F90CF91DF910895DF93CF9343
:101F800000D00F92CDB7DEB789838981282F30E04A
:101F90003B832A838A819B818130910589F02A8144
:101FA0003B8122303105A1F08A819B810097B9F4F1
:101FB000ABE5B0E0EBE5F0E080818F7B8C930FC068
:101FC000ABE5B0E0EBE5F0E080818F778C9307C064
:101FD000ABE5B0E0EBE5F0E080818F7D8C930F9076
:101FE0000F900F90CF91DF910895DF93CF9300D0A2
:101FF00000D0CDB7DEB789836A838981282F30E08E
:102000003C832B838B819C818130910591F02B81C6
:102010003C8122303105E9F08B819C81009771F57C
:10202000A5E5B0E0E5E5F0E090818A81892B8C930D
:1020300025C0A5E5B0E0E5E5F0E08081282F8A81A4
:10204000882F90E0880F991F880F991F822B8C93FF
:1020500015C08A81823041F4A4E5B0E0E4E5F0E007
:1020600080818F7B8C930AC08A81833039F4A4E508
:10207000B0E0E4E5F0E0808180648C930F900F90F5
:102080000F900F90CF91DF910895DF93CF9300D001
:1020900000D00F92CDB7DEB789836A834B838981E5
:1020A000282F30E03D832C838C819D8181309105E8
:1020B00009F443C02C813D81223031052CF48C8100
:1020C0009D81009771F0BCC02C813D81223031058B
:1020D00009F45FC08C819D818330910509F485C02E
:1020E000AFC08B818823A9F4AAE3B0E0EAE3F0E073
:1020F0008081482F8A81282F30E081E090E0022EF5
:1021000002C0880F991F0A94E2F7809584238C936C
:1021100097C0AAE3B0E0EAE3F0E08081482F8A812B
:10212000282F30E081E090E0022E02C0880F991F36
:102130000A94E2F7842B8C9383C08B818823A9F4C3
:10214000A7E3B0E0E7E3F0E08081482F8A81282F01
:1021500030E081E090E0022E02C0880F991F0A94BF
:10216000E2F7809584238C936BC0A7E3B0E0E7E3AC
:10217000F0E08081482F8A81282F30E081E090E0D4
:10218000022E02C0880F991F0A94E2F7842B8C93C9
:1021900057C08B818823A9F4A4E3B0E0E4E3F0E026
:1021A0008081482F8A81282F30E081E090E0022E44
:1021B00002C0880F991F0A94E2F7809584238C93BC
:1021C0003FC0A4E3B0E0E4E3F0E08081482F8A81DF
:1021D000282F30E081E090E0022E02C0880F991F86
:1021E0000A94E2F7842B8C932BC08B818823A9F46B
:1021F000A1E3B0E0E1E3F0E08081482F8A81282F5D
:1022000030E081E090E0022E02C0880F991F0A940E
:10221000E2F7809584238C9313C0A1E3B0E0E1E35F
:10222000F0E08081482F8A81282F30E081E090E023
:10223000022E02C0880F991F0A94E2F7842B8C9318
:102240000F900F900F900F900F90CF91DF91089506
:10225000DF93CF9300D000D00F92CDB7DEB7898344
:102260006A834B838981282F30E03D832C838C81C6
:102270009D818130910509F443C02C813D8122303C
:1022800031052CF48C819D81009771F0BCC02C81AC
:102290003D812230310509F45FC08C819D818330FE
:1022A000910509F485C0AFC08B818130A1F4ABE307
:1022B000B0E0EBE3F0E08081482F8A81282F30E006
:1022C00081E090E0022E02C0880F991F0A94E2F785
:1022D000842B8C9398C0ABE3B0E0EBE3F0E080811B
:1022E000482F8A81282F30E081E090E0022E02C042
:1022F000880F991F0A94E2F7809584238C9383C0FA
:102300008B818130A1F4A8E3B0E0E8E3F0E08081C4
:10231000482F8A81282F30E081E090E0022E02C011
:10232000880F991F0A94E2F7842B8C936CC0A8E362
:10233000B0E0E8E3F0E08081482F8A81282F30E088
:1023400081E090E0022E02C0880F991F0A94E2F704
:10235000809584238C9357C08B818130A1F4A5E3B1
:10236000B0E0E5E3F0E08081482F8A81282F30E05B
:1023700081E090E0022E02C0880F991F0A94E2F7D4
:10238000842B8C9340C0A5E3B0E0E5E3F0E08081CE
:10239000482F8A81282F30E081E090E0022E02C091
:1023A000880F991F0A94E2F7809584238C932BC0A1
:1023B0008B818130A1F4A2E3B0E0E2E3F0E0808120
:1023C000482F8A81282F30E081E090E0022E02C061
:1023D000880F991F0A94E2F7842B8C9314C0A2E310
:1023E000B0E0E2E3F0E08081482F8A81282F30E0DE
:1023F00081E090E0022E02C0880F991F0A94E2F754
:10240000809584238C930F900F900F900F900F90D6
:10241000CF91DF910895DF93CF9300D000D00F923A
:10242000CDB7DEB789836A834B838981282F30E05B
:102430003D832C838C819D818130910529F12C81F4
:102440003D81223031052CF48C819D81009761F013
:102450004AC02C813D812230310531F18C819D8132
:102460008330910589F13FC0ABE3B0E0EBE3F0E0EE
:102470008081982F8A818095292F28239B818A81AA
:102480008923822B8C932FC0A8E3B0E0EBE3F0E02C
:102490008081982F8A818095292F28239B818A818A
:1024A0008923822B8C931FC0A5E3B0E0EBE3F0E01F
:1024B0008081982F8A818095292F28239B818A816A
:1024C0008923822B8C930FC0A2E3B0E0EBE3F0E012
:1024D0008081982F8A818095292F28239B818A814A
:1024E0008923822B8C930F900F900F900F900F9059
:1024F000CF91DF910895DF93CF9300D000D0CDB777
:10250000DEB789836A838981282F30E03C832B835F
:102510008B819C818130910549F12B813C81223056
:1025200031052CF48B819C81009761F05AC02B817E
:102530003C812230310571F18B819C818330910582
:10254000E9F14FC0ABE3B0E0EBE3F0E08081482F6E
:102550008A81282F30E081E090E0022E02C0880FAF
:10256000991F0A94E2F784278C933BC0A8E3B0E05C
:10257000E8E3F0E08081482F8A81282F30E081E075
:1025800090E0022E02C0880F991F0A94E2F7842778
:102590008C9327C0A5E3B0E0E5E3F0E08081482F0D
:1025A0008A81282F30E081E090E0022E02C0880F5F
:1025B000991F0A94E2F784278C9313C0A2E3B0E03A
:1025C000E2E3F0E08081482F8A81282F30E081E02B
:1025D00090E0022E02C0880F991F0A94E2F7842728
:1025E0008C930F900F900F900F90CF91DF910895E3
:1025F000DF93CF9300D000D00F92CDB7DEB78A83A0
:102600006B8319828A81282F30E03D832C834C8193
:102610005D814130510579F18C819D818230910538
:1026200034F42C813D812115310569F06BC04C815A
:102630005D8142305105B9F18C819D8183309105D6
:1026400009F449C05FC0E9E3F0E08081282F30E061
:102650008B81882F90E0A90102C0559547958A95F6
:10266000E2F7CA0181709070882319F081E08983B4
:1026700049C0198247C0E6E3F0E08081282F30E0AE
:102680008B81882F90E0A90102C0559547958A95C6
:10269000E2F7CA0181709070882319F081E0898384
:1026A00031C019822FC0E3E3F0E08081282F30E0B1
:1026B0008B81882F90E0A90102C0559547958A9596
:1026C000E2F7CA0181709070882319F081E0898354
:1026D00019C0198217C0E0E3F0E08081282F30E0B4
:1026E0008B81882F90E0A90102C0559547958A9566
:1026F000E2F7CA0181709070882319F081E0898324
:1027000001C0198289810F900F900F900F900F9048
:10271000CF91DF910895DF93CF93CDB7DEB7A7E2D6
:10272000B0E0E7E2F0E0808180648C93E6E2F0E0E4
:1027300087E88083CF91DF910895DF93CF9300D016
:102740000F92CDB7DEB78B83A7E2B0E0E7E2F0E00F
:102750008081982F987F8B81892B8C93A6E2B0E0A3
:10276000E6E2F0E0808180648C93E6E2F0E0808134
:1027700082958F70882F90E0817090700097A9F3F8
:10278000A6E2B0E0E6E2F0E0808180618C93E4E2D2
:10279000F0E08081282F30E0E5E2F0E08081882FB2
:1027A00090E0982F8827822B932B9A8389838981A5
:1027B0009A810F900F900F90CF91DF910895991B00
:1027C00079E004C0991F961708F0961B881F7A9528
:1027D000C9F780950895AA1BBB1B51E107C0AA1F2A
:1027E000BB1FA617B70710F0A61BB70B881F991FB2
:1027F0005A95A9F780959095BC01CD0108952F9227
:102800003F924F925F926F927F928F929F92AF9280
:10281000BF92CF92DF92EF92FF920F931F93CF93CD
:10282000DF93CDB7DEB7CA1BDB0B0FB6F894DEBF64
:102830000FBECDBF09942A88398848885F846E848A
:102840007D848C849B84AA84B984C884DF80EE80D4
:10285000FD800C811B81AA81B981CE0FD11D0FB6DD
:10286000F894DEBF0FBECDBFED010895F894FFCF01
:102870000000000000000000000102020303030347
:102880000404040404040404050505050505050500
:1028900005050505050505050606060606060606E0
:1028A00006060606060606060606060606060606C8
:1028B00006060606060606060707070707070707B0
:1028C0000707070707070707070707070707070798
:1028D0000707070707070707070707070707070788
:1028E0000707070707070707070707070707070778
:1028F0000707070707070707080808080808080860
:102900000808080808080808080808080808080847
:102910000808080808080808080808080808080837
:102920000808080808080808080808080808080827
:102930000808080808080808080808080808080817
:102940000808080808080808080808080808080807
:1029500008080808080808080808080808080808F7
:1029600008080808080808080808080808080808E7
:1029700008080808080808080A1F1F1F1F0E04007F
:10298000041F11111111111F041F111111111F1F0B
:10299000041F1111111F1F1F041F11111F1F1F1FC3
:1029A000041F111F1F1F1F1F041F1F1F1F1F1F1F7B
:0829B0000000010105051515E9
:00000001FF
